:400000000010002011000000410400004104000080B500AF00F048FA80B500AF0F4B0F4A12688021C9020A431A60182001F06AFA0A4B0A4A12680A490A401A60094B0A4A2C
:400040001A600A4B802212061A60044B00221A60074B00221A60C046BD4680BD00010B40FFFFFBFF04010B400600008008010B400C020B4080B582B000AF72B6FB1D00221F
:400080001A7022E0FB1D1A7813005B009B185B00234A9B183B603B681A78597809020A43997809040A43DB781B06134318003B681A795B791B0213439BB2190000F0AAF9B2
:4000C000FB1D1A78FB1D01321A70FB1D1B78012BD8D9144BEE2212021A60134B992212041A60124B992212041A60114A104B1B78DBB206210B43DBB213700E4B20221A603B
:400100000D4BC02292021A600C4BD82212011A60FFF782FF00F08EF9C046BD4602B080BD882600000C00014000500F4030500F4000700F40000004400800044008030440AC
:4001400010B5064C2378002B07D1054B002B02D0044800E000BF0123237010BD50010020000000004C260000084B10B5002B03D00749084800E000BF07480368002B00D120
:4001800010BD064B002BFBD09847F9E700000000540100204C260000C80000200000000080B584B000AF78607B681B0907221A4013009B009B185B00FB607B680F221340A5
:4001C000FA68D318FB60FB681800BD4604B080BD80B584B000AF78607B681B0B07221A4013009B009B185B00FB607B681B0A0F221340FA68D318FB60FB681800BD4604B0EF
:4002000080BDC04680B584B000AF78607B681B0D03221A4013009B009B185B00FB607B681B0C0F221340FA68D318FB60FB681800BD4604B080BDC04680B584B000AF78604F
:400240007B681B0D03221A4013009B009B185B00FB607B681B0C0F221340FA68D318FB60FB681800BD4604B080BDC04680B584B000AF78607B681B0F01221A4013009B000A
:400280009B185B00FB607B681B0E0F221340FA68D318FB60FB681800BD4604B080BDC04680B584B000AF78607B681B0B03221340FA2292005343FB607B681B0A0F2213408C
:4002C00064225343FA68D318FB607B681B090F221A4013009B009B185B001A00FB689B18FB607B680F221340FA68D318FB60FB681800BD4604B080BDB0B58EB002AF01F09E
:4003000061FA384B180001F0BBFA0023FB620FE0FB6A180001F0F0FA031E06D1324AFB6A1100180001F0D2FA05E0FB6A0133FB62FB6A042BECD900F063FB2C4A2C4B11001B
:40034000180000F013FC0A21012000F097FC62B600F0A8FC0300BB6200F0C6FC03007B62BB6A1800FFF74EFF0400BB6A1800FFF72FFF0500BB6A1800FFF712FF03001D49A2
:400380001422B81800932B00220001F03BFD7B6A1800FFF76BFF04007B6A1800FFF74CFF05007B6A1800FFF77BFF03001249381D00932B00220001F025FD1423FB18180015
:4003C00000F0F0F80D4B180000F0ECF83B1D180000F0E8F80A4B180000F0E4F8C82001F0B7F9B5E7009F2400050400001420220350590200582600006C26000080260000BD
:400400008426000080B500AF00F09CFDC046BD4680BDC04680B582B000AF786039603A687B680021180001F0E4FCC046BD4602B080BDC04680B500AFC046BD4680BDC04615
:4004400080B500AF01F0A0FC03001B680C2B00D1FEE7FEE780B584B000AF7860104B1A687B68D3181A000F4BD21A80235B009A4209DC0B4B1B68FB60094B1A687B68D21822
:40048000074B1A6007E001F07FFC03000C221A6001235B42FB60FB681800BD4604B080BDCC0000201802002080B586B000AF224B7B61224B3B61204B7B6135E03B691B68D2
:4004C000FB603B695B68BB603B699B683B6000237B600CE0FB681A68BB681A60BB680433BB60FB680433FB607B6804337B607A683B689A42EED13B69DB683B6000237B6072
:4005000008E0BB6800221A60BB680433BB607B6804337B607A683B689A42F2D13B6910333B617B69013B7B617B69002BC6D101F031FCFFF7E1FEFEE7010000004027000021
:4005400080B582B000AF00237B600FE07B68032B04D8104B7A689200D35800E00E4B0F4A796889008B507B6801337B607B682F2BECD9FFF77FFD0A4B00221A608023DB05E0
:400580008022D205126801210A431A60C046BD4602B080BD000000004104000000000020C000002080B584B000AF78600F23FB1801221A700E23FB187A6812781A7015E011
:4005C0000E23FB181B78180001F0CAF90F23FB181B787A68D2180E23FB1812781A700F23FB181A780F23FB1801321A700E23FB181B78002BE4D1C046BD4604B080BDC046CC
:4006000080B582B000AF786039607B683A681A403B689A4201D1012300E000231800BD4602B080BD80B584B000AF78607B680322134006D17B686421180001F095FA0B1E87
:4006400007D17A68C8235900100001F08DFA0B1E02D10123FB6001E00023FB60FB681800BD4604B080BDC04680B584B000AF78607B681B0907221A4013009B009B185B006F
:40068000FB607B680F221340FA68D318FB60FB681800BD4604B080BD80B584B000AF78607B681B0B07221A4013009B009B185B00FB607B681B0A0F221340FA68D318FB609A
:4006C000FB681800BD4604B080BDC04680B584B000AF78607B681B0D03221A4013009B009B185B00FB607B681B0C0F221340FA68D318FB60FB681800BD4604B080BDC04649
:4007000080B582B000AF78608023DA037B6811001800FFF775FF03001800BD4602B080BD80B584B000AF78607B681B0D03221A4013009B009B185B00FB607B681B0C0F22FC
:400740001340FA68D318FB60FB681800BD4604B080BDC04680B584B000AF78607B681B0F01221A4013009B009B185B00FB607B681B0E0F221340FA68D318FB60FB681800C5
:40078000BD4604B080BDC04680B584B000AF78607B681B0B03221340FA2292005343FB607B681B0A0F22134064225343FA68D318FB607B681B090F221A4013009B009B18EC
:4007C0005B001A00FB689B18FB607B680F221340FA68D318FB60FB681800BD4604B080BD80B582B000AF78607A6880231B04134001D0012300E000231800BD4602B080BDAE
:4008000080B586B000AFF860B9607A603B60FB68DB057B61BB689B057A6913437B617B680A21180001F01AF903001B057A6913437B617B680A21180001F096F90B001B048F
:400840007A6913437B613B680A21180001F006F903001B037A6913437B613B680A21180001F082F90B001B027A6913437B613B6A0A21180001F0F2F803001B017A691343AD
:400880007B613B6A0A21180001F06EF90B001A007B6913437B617B691800BD4606B080BD80B586B000AFF860B9607A607B687B61FB680A21180001F0D1F803001B073B61AA
:4008C000FB680A21180001F04FF90B001B063A6913433B61BB680A21180001F0BFF803001B053A6913433B61BB680A21180001F03BF90B001B043A6913433B617A68FA2349
:400900009900100001F0AAF803001B033A6913433B617A69FA239900100001F025F90B007B617B696421180001F098F803001B023A6913433B617B696421180001F014F9F0
:400940000B007B617B690A21180001F087F803001B013A6913433B617B690A21180001F003F90B001A003B6913433B613B691800BD4606B080BDC04690B587B000AFF8603B
:40098000B9607A60BB68022B05D8BB680C33BB607B68013B7B60BB6801331A2253430A21180001F05BF803001A00FB68D2187B68D2187B689B08D4187B686421180001F0D6
:4009C0004DF803001A0013005B009B185B00E4187A68C8235900100001F040F80300E3180721180001F0C0F80B007B617B69002B01D107237B617B691800BD4607B090BD06
:400A000080B500AF044B1B78002B01D100F006F8C046BD4680BDC046D001002090B58BB002AF474B01221A70464B00221A60464B0022DA60454B01221A70454B00221A60D5
:400A4000444B1A0001210120FFF72AFF0300FB61002300930023002200210020FFF7D0FE0300BB61394B00221A70374B0222DA603B0001221A753B0003221A603B000122B8
:400A80005A603B000622DA603B0016229A603B0003221A613B000121180000F047F93B0001221A753B0003221A603B0001225A603B000622DA603B0016229A603B000A22A2
:400AC0001A613B000121180000F08CF9224B180000F0E4F903000C00204A13605460204B180000F0DBF903000C001E4A136054601D4B5C681B68194A11685268A24214D8A5
:400B000001D1994211D8184B19685A68154B5C681B68A24209D801D1994206D80B4B01221A70084BE12212011A60FA69BB691100180000F01BF8C046BD4609B090BDC046D4
:400B4000D001002078010020EC01002000020020FC010020B2070000B801002080010020D40100208801002008020020F0B587B000AF786039603B681800FFF7D1FD030026
:400B80007B613B681800FFF7E5FD03003B613B681800FFF7F9FD0300FB607A683B681100180000F03FFA03000C002C4A136054602B4B3A685A602A4B7A681A60FA683969F8
:400BC0007B691800FFF7D8FE0200254B9A60254B180000F063F903000C00234A13605460224B180000F05AF903000C00204A136054601A4B5C681B681B4A11685268A242BA
:400C000022D801D199421FD8144B19685A68184B5C681B68A24217D801D1994214D8154B01221A70144BE12212011A600B4B5C681B68114A12681500002216005B1BB44138
:400C4000064A1360546005E00A4B00221A700A4B00221A60C046BD4607B0F0BD08020020EC010020B801002080010020D401002088010020000200207801002080B582B048
:400C800000AF78603960054B7A681A60044B3A681A60C046BD4602B080BDC046700100207401002090B583B002AF0C4B1B68190000231A000A4B5C681B685B18544109498A
:400CC000002200921A002300080000F073FA054B1B681800BD4601B090BDC0467801002008020020EC01002090B583B002AF0C4B1B68190000231A000A4B5C681B685B1874
:400D000054410949002200921A002300080000F051FA054B5B681800BD4601B090BDC0467801002008020020EC01002090B583B000AF78600A00FB1C1A70244BFA1C1278DD
:400D40001A757B681A68214B1A607B685A681F4B5A607B68DA681D4BDA607B689A681B4B9A607B681A69194B1A61184B180000F095F803000C00164A13605460154B5C68CD
:400D80001B68134A11685268A24215D801D1994212D8104B19685A680F4B5C681B68A2420AD801D1994207D80C4B01221A700C4BE12212011A6005E0084B00221A70084B05
:400DC00000221A60C046BD4603B090BDB8010020800100200802002088010020000200207801002090B583B000AF78600A00FB1C1A70244BFA1C12781A757B681A68214B2D
:400E00001A607B685A681F4B5A607B68DA681D4BDA607B689A681B4B9A607B681A69194B1A61184B180000F039F803000C00164A13605460154B5C681B68154A11685268B3
:400E4000A24215D801D1994212D8104B19685A680D4B5C681B68A2420AD801D1994207D80C4B01221A700C4BE12212011A6005E0084B00221A70084B00221A60C046BD46B4
:400E800003B090BDD4010020880100200802002080010020000200207801002090B58DB002AF7860264B5C681B680822B918002200921A002300080000F07CF90823FB18B4
:400EC0005B681800FFF760FC03003B627B681B7D012B0AD17B6818697B689B683A6A1900FFF7DEFC03007B620AE07B6858687B68D9687B681A693B6A00F0A8FA03007B62BE
:400F00007B681A6800230093002300210020FFF777FC02000823FB181A600823FB181A687B6A1100180000F07DF803000C00BB61FC61BB69FC6918002100BD460BB090BD87
:400F400008020020F8B500AF2C4B1A682C4B1B68D2182A4B1A60294B1A682A4B1B689A4248D3294B5C681B68012100225B185441254A13605460214B00221A60224B1968A7
:400F80005A68224B5C681B68994208D1A24206D11F4B01221A701F4BE12212011A601E4B5C681B681B4A12681500002216005B1BB44119002200144B5C681B68994219D14E
:400FC000A24217D1124B00221A70124B00221A60124B1800FFF762FF03000C000B4A136054600F4B1800FFF759FF03000C000A4A13605460C046BD46F8BDC046900100200D
:4010000070010020740100200802002080010020000200207801002088010020B8010020D4010020F0B591B000AF78623962002300243B637C637B6A1800FFF7A5FB030029
:40104000FB62564BFB6319E0FB6B1800FFF7EAFA031E08D03B6B7C6B514900225B1854413B637C6307E03B6B7C6B4E4900225B1854413B637C63FB6B0133FB63FA6BFB6A88
:401080009A42E1D37B6A1800FFF764FB0300BB62BB6A5A1E444B5200D35ABB63BB6A022B08D9FB6A1800FFF7BDFA031E02D0BB6B0133BB63BB6B3D4A5343BB610023FB61BF
:4010C0003B6B7C6BB969FA695B1854413B637C637B6A1800FFF724FB0200344B5343344A944663443B6100237B613B6B7C6B39697A695B1854413B637C633B6A1800FFF74C
:40110000E5FA0300BB633B6A1800FFF769FB031E0BD03B6A1800FFF7F3FA031E05D0BB6B0B2B02D8BB6B0C33BB63BB6BE12212015343BB600023FB603B6B7C6BB968FA68D2
:401140005B1854413B637C633B6A1800FFF7A4FA020013001B019B1A9B003B6000237B603B6B7C6B39687A685B1854413B637C633B6A1800FFF778FA03001D0000231E0064
:401180003B6B7C6B5B1974413B637C633B6B7C6B18002100BD4611B0F0BDC046B20700000085E2018033E101942600008051010080AEFEFFF0B5A1B002AF7865BA64FB6451
:4011C00000233B679C4BBB669C4B7B6619E07B6EBB600023FB60BB6CFC6CB968FA685B1A9441BB64FC64BB6E0133BB66BB6E1800FFF718FA031E02D0914B7B6601E08F4BD2
:401200007B667B6E1D0000231E00FB6CB342DED8FB6CB34202D1BB6CAB42D8D80123FB66BA6EFB6E1100180000F04EF90200854B53437B6618E07B6E3B6000237B60BB6C21
:40124000FC6C39687A685B1A9441BB64FC64FB6E0133FB66BA6EFB6E1100180000F034F90200784B53437B667B6E3B6400237B64FB6C7A6C934207D3FB6C7A6C9342DAD156
:40128000BB6C3A6C9342D6D2B86CF96C6D4A002300F070FC03000C003B663A6E694B53437B667B6EBB630023FB63FB6CFA6B93420CD3FB6CFA6B934203D1BB6CBA6B934204
:4012C00004D37B6E3B6200237B6203E0002300243B627C62BB6CFC6C396A7A6A5B1A9441BB64FC643B6E01333B66B86CF96CE1221201002300F03EFC03000C007B677B6FC8
:40130000E122120153437B669023FB181B68002B1DD0FB6C002B06D1FB6C002B0ED1BB6C494A93420AD901233B677B6F0C2B02D97B6F0C3B00E07B6F7B6708E000233B6727
:401340007B6F002B01D07B6F00E00C237B677B6E3B6300237B63FB6C7A6B93420CD3FB6C7A6B934203D1BB6C3A6B934204D37B6EBB610023FB6103E000230024BB61FC6190
:40138000BB6CFC6CB969FA695B1A9441BB64FC64B86CF96C3C22002300F0ECFB03000C00FB65FA6D13001B019B1A9B007B667B6EBB620023FB62FB6CFA6A93420CD3FB6CCD
:4013C000FA6A934203D1BB6CBA6A934204D37B6E3B6100237B6103E0002300243B617C61BB6CFC6C39697A695B1A9441BB64FC64BA6E396EFB6E1800FFF752FA02007B6D69
:401400005A60BB6CFC6D7A6F396F90203818006800932300FFF7F4F902007B6D1A60BA6EF96E3B6E1800FFF7A7FA02007B6D9A60C046BD461FB0F0BDB20700008033E101CE
:401440000085E20180510100C1A8000080B58AB000AFF860B9607A603B6001237B6201233B623A687B681100180000F02DF80300BB617B6AFB6111E03A6879687B6A18006F
:40148000FFF77AFA0200FB689A4204D17B6AFB613B6A01333B627B6A01337B623A6ABB689A4203D87A6ABB699A42E5D93A68F9697B681800FFF7F4F903007B617B69180022
:4014C000BD460AB080BDC04680B584B000AF786039607B68013B0A4AD35CFB607B68022B08D13B681800FFF79DF8031E02D0FB680133FB60FB681800BD4604B080BDC046DD
:40150000AC26000090B585B000AF78600C23FC1800F09CFA030023707B68022B00D8B3E07B68302B00D9AFE05E4B1B78DBB21A007B689A420AD35C4A0F23FB1812781A70DA
:401540005A4A0E23FB1812781A703FE0584B1B78DBB21A007B689A420AD3564A0F23FB1812781A70544A0E23FB1812781A702DE0524B1B78DBB21A007B689A420AD3504ACE
:401580000F23FB1812781A704E4A0E23FB1812781A701BE04C4B1B78DBB21A007B689A420AD34A4A0F23FB1812781A70484A0E23FB1812781A7009E0464A0F23FB1812785B
:4015C0001A70454A0E23FB1812781A707B68DA1E0B23FB1841498A5C1A700B23FB181B782F2B0DD97B682A2B0AD93D4B19221A60052000F021FA0D23FB1819221A7007E0D9
:40160000374B1B68DAB20D23FB183F210A401A700B23FA180D23FB1812781B789A4208D22F4B7A68033A2D498A5C1A60052000F003FA7B68284A9A180A23FB1812781A7070
:40164000284B0A22BA1812781A60274B0F22BA1812781A60254B0E22BA1812781A60052000F09CF80B23FA180D23FB1812781B789A420CD91A4B7A68033A18498A5C1A60B7
:40168000052000F0D9F902E0002000F055F80C23FB181B78180000F0DDF9C046BD4605B090BDC046C0F1FF0FC1F1FF0FC2F1FF0FC3F1FF0FC4F1FF0FC5F1FF0FC6F1FF0FF2
:4016C000C7F1FF0FC8F1FF0FC9F1FF0FCAF1FF0FCBF1FF0FCCF1FF0FCDF1FF0FB82600002CFF0B4028FF0B401CFF0B4020FF0B4080B584B000AF02003960FB1D1A708023DD
:401700009B05FB60FB1D1B780F2B02D9002000F013F8FB1D1B789B00FA68D3181B68BB60FB1D1B789B00FA68D3183A681A60BB681800BD4604B080BD80B582B000AF0200AC
:40174000FB1D1A7001BEC046BD4602B080BDC04680B582B000AF786009E00D4B1B68180000F06AF97B680B4A944663447B607A6880231B029A42F0D8074B1B687A685343C6
:40178000180000F059F9C046BD4602B080BDC046E40000200080FFFFDC00002080B582B000AF0200BB1D1A80BB1D1B88044A12785343180000F040F9C046BD4602B080BDA7
:4017C000E000002080B500AF064B1B68002B04D100F00AF8034B01221A6000F033F8C046BD4680BDA801002080B582B000AF00237B6007E0104B7A6892000021D1507B683B
:4018000001337B607B68042BF4D90C4B19000F20FFF76EFF0A4B1A68FA239900100000F01DF90300180000F02BF800F045F8C046BD4602B080BDC0469401002015190000D9
:40184000D800002080B500AF00F00CF8044B044A126801210A431A60C046BD4680BDC04610E000E080B500AF044B044A126802210A431A60C046BD4680BDC04610E000E07B
:4018800080B582B000AF7860044B7A681202120A1A60C046BD4602B080BDC04614E000E080B500AF034B1B681B0C012213401800BD4680BD10E000E080B500AF024B0022C0
:4018C0001A60C046BD4680BD18E000E080B584B000AF78603960074B7A689200D358FB60044B7A6892003968D150FB681800BD4604B080BD9401002080B582B000AF7860E4
:40190000034B7A689200D3581800BD4602B080BD9401002080B582B000AFFFF7C1FF0300012B13D100237B600DE00A4B7A689200D358002B04D0074B7A689200D35898476E
:401940007B6801337B607B68042BEED9C046BD4602B080BD940100200000000000000000FEB5494652465B460EB407462E4909688A462E4A12682E48022100F06FF80300C8
:401980002A480068C0182A4900F068F806001F3EB346234A126801219140C9430C000125002600F053F8814651460B6823400B605846043000F040F83800F04028409040A4
:4019C0000B68234003430B60584600F035F80136072EF1D900200130012090400B68234003430B605846063000F026F8484600F031F8C046C046C0460EBC894692469B46B9
:401A0000FEBDC046C046C046C046C046C046C046C046C046C046C046C046C046C046C046D00000206C010020D4000020D800002000C20100000000000230800804D0C046D1
:401A40000138FDD1C046C046C0467047EFF3108072B6704780F310887047C046002243088B4274D303098B425FD3030A8B4244D3030B8B4228D3030C8B420DD3FF22090242
:401A800012BA030C8B4202D31212090265D0030B8B4219D300E0090AC30B8B4201D3CB03C01A5241830B8B4201D38B03C01A5241430B8B4201D34B03C01A5241030B8B4232
:401AC00001D30B03C01A5241C30A8B4201D3CB02C01A5241830A8B4201D38B02C01A5241430A8B4201D34B02C01A5241030A8B4201D30B02C01A5241CDD2C3098B4201D3EB
:401B0000CB01C01A524183098B4201D38B01C01A524143098B4201D34B01C01A524103098B4201D30B01C01A5241C3088B4201D3CB00C01A524183088B4201D38B00C01A45
:401B4000524143088B4201D34B00C01A5241411A00D20146524110467047FFE701B5002000F006F802BDC0460029F7D076E770477047C046002B11D1002A0FD1002900D1D9
:401B8000002802D00021C943081C07B4024802A14018029003BDC046D9FFFFFF03B4684601B5029800F006F8019B9E4602B00CBC7047C046F0B54D46564644465F46F0B4AB
:401BC000924683B004000D0099468B422FD82CD04946504600F0AEF829000600200000F0A9F8331A9846203B9B4600D574E053465A4693401F005346424693401E00AF42C1
:401C000029D826D05B46A41BBD41002B00DA79E0002200230092019301235A4693400193012342469340009319E08242D0D900220023009201930C9B002B01D01C605D609C
:401C40000098019903B03CBC90469946A246AB46F0BDA342D6D900220023009201934346002BE8D0FB0772081A4346467B080EE0AB4201D1A2420CD8A41A9D41012024198A
:401C80006D410021013E24184D41002E06D0AB42EED9013E24196D41002EF8D15B460098019900196941002B22DB2B005A46D3402A004446E2401C005B461500002B2CDBFD
:401CC00026009E40330026004746BE403200801A994100900191AEE7424620239B1A5246DA40414613004A468A4017001F4382E7424620239B1A2A0046469A402300F34031
:401D00001343D5E74246202300219B1A0022009101920122DA40019282E74246202326009B1ADE402F00B446974066463B003343C9E7C04610B5002903D100F007F8203099
:401D400002E0081C00F002F810BDC0461C2101231B04984201D3000C10391B0A984201D3000A08391B09984201D30009043902A2105C40187047C0460403020201010101B3
:401D80000000000000000000014B18687047C0464C0100200E4B70B500251E000D4CE41AA410A54204D0AB00F35898470135F8E700F0B4FC084B00251E00084CE41AA41080
:401DC000A54204D0AB00F35898470135F8E770BD28270000282700002827000030270000002310B59A4203D0CC5CC4540133F9E710BD03008218934202D019700133FAE733
:401E0000704700000EB410B59DB002A9029008610B48822488604861012040421FABC881084804CBA400006801938C8100F06EF80023029A13701DB010BC08BC03B018475E
:401E4000FFFFFF7F4C010020F0B58E6885B007000C00039201939E4243D890238A89DB001A423ED003250969236801985B1A029363695D43EB0F5D19029B6D1001331B1842
:401E8000AB4200D91D00530510D52900380000F037FB061E14D0029A2169FFF7A1FFA289194B134080221343A38112E02A00380000F086FB061E0CD12169380000F0D4FA77
:401EC0000C23402201203B60A38940421343A38117E0029B2661F61826606561019EED1AA560019BB34200D21E0032000399206800F0A5FA0020A3689B1BA36023689E19C1
:401F0000266005B0F0BDC0467FFBFFFFF0B59FB0029005938B890F0016001B0610D50B69002B0DD1402100F0EBFA38603861002804D10C23029A01381360D8E040237B618F
:401F4000002306AD6B6120336B761033AB7634002378002B03D1A31B049312D003E0252BF9D00134F4E7A31B320039000298FFF76BFF431C00D1B4E06A69049B944663443C
:401F80006B612378002B00D1ABE00122002352426A6002A95432521801342B60EB60AB601370AB65534E21780522300000F03CFA002807D00123801B83402A6801341343F6
:401FC0002B60EFE72B68DA0604D55322202102A8121811701A0704D553222B2102A81218117022782A2A03D0099B00200A210EE0059A111D12680591002A01DB099204E019
:402000005242EA60022213432B6001340BE02278303A092A04D84B4301349B180120F6E7002800D0099323782E2B1ED163782A2B0AD1059B02341A1D1B680592002B01DA67
:4020400001235B42079310E000230A201A0001346B6021783039092904D84243013452180123F6E7002B00D00792234E21780322300000F0D9F9002806D04023801B834005
:402080002A68013413432B60217806221B48661C297600F0C9F9002812D0194B002B06D10722059B073393430833059314E005AB00933A00134B2900029800E000BF07E04D
:4020C00005AB00933A000F4B2900029800F08AF80390039B013304D06B69039A9B186B6135E7BB890B985B0601D5012040421FB0F0BDC046E8260000EE260000F226000012
:4021000000000000491E0000F7B5170001938A680B6900900C00934200DA130022003B6043321278002A01D001333B6023689B0602D53B6802333B60062523681D401ED020
:40214000230043331B785A1E9341226892061CD53020E1184331087021005A1C45310978A2184332023311700FE022000123193201990098089EB047431C0ED00135E3681F
:402180003A689B1A9D42F0DBDAE72200019943320098089DA847431C02D10120404220E006232068E1683A6803400025042B03D18D1AEB43DB171D40A3682269934201DDB7
:4021C0009B1AED180027BD420AD0220001231A3201990098089EB047431CDED00137F2E70020FEBDF0B58BB006920A0043320793059004920A7E0C00109B6E2A00D1ABE0DC
:4022000011D8632A22D009D8002A00D1B5E0582A00D0C5E045310A70814A4FE0642A1DD0692A1BD0BCE0732A00D1AAE009D86F2A29D0702A00D0B3E0202209680A43226065
:4022400037E0752A1FD0782A33D0A9E00E001A684236111D196013683370A4E021681A68080606D4490604D5111D19600023D55E02E0111D19601568002D3BDA2D23049AEC
:402280006D42137036E021681A68080606D4490604D51568111D1960ADB202E0111D196015685F4B227E039308276F2A1DD00A271BE022007821453211705A4A1968039204
:4022C000081D226818600D68100602D4500600D5ADB2D30702D520231A4322601027002D03D1202322689A4322602300002243331A7002E00A274A4B03936368A360002B19
:4023000009DB0422216891432160002D05D1049E002B11D07BE0002D79D0049E28003900FFF722FC039B013E5B5C280033703900FFF794FB051EF1D1082F09D12368DB079C
:4023400006D563682269934202DC3023013E3370049B9B1B23612BE009681A68080607D4490605D5111D19601368A28A1A8004E0111D1960136862691A600023049E2361DF
:4023800016E01A68111D1960166800216268300000F04AF8002801D0801B6060636803E0260042363270012323610023049A1370079B09AA00932100069B0598FFF7A4FE26
:4023C000431C02D10120404227E02369320006990598079DA847431CF4D0236800259B070FD4099BE068984217DA180015E022000123193206990598079EB047431CE1D0DF
:402400000135E368099A9B1A9D42F0DBE9E72600039B42361B7833708EE70BB0F0BDC046F92600000A270000C9B28218904204D003788B4202D00130F8E70020704710B523
:40244000884202D98B18984201D3002305E09B1A013A08D3995C8154FAE7934203D0CC5CC4540133F9E710BD70B50500002944D00C1F2368002B00DAE418280000F0D8F819
:402480001E4A13681100002B02D16360146031E0A3420DD92268A018834203D118685B688218226063600C6024E0A24203D813005A68002AF9D11E689819A0420BD12168A4
:4024C000711858181960824214D110685268411819605A600EE0A04202D90C232B6009E021686018824203D1106852684118216062605C60280000F09CF870BDB0010020E8
:40250000032370B5CD1C9D43083506000C2D01D20C2501E0002D01DBA94202D90C23336048E0300000F084F8234B1C681A002100002913D00B685B1B0DD40B2B02D90B6052
:40254000CC181EE08C4202D1636813601AE04B6863600C0016E00C004968E9E7174C2368002B03D1300000F051F820602900300000F04CF8431C18D00323C41C9C43A0422A
:402580000DD12560300000F054F8200007220B30231D9043C31A0ED05A42E2500BE0211A300000F033F8431CEBD10C233000336000F03FF8002070BDB0010020AC0100209C
:4025C000F8B506000C001500002904D11100FFF797FF040018E0002A03D1FFF745FF2C0012E000F027F885420ED929003000FFF787FF071E07D021002A00FFF7F1FB21003E
:402600003000FFF731FF3C002000F8BD002370B5064C050008002360FDF71CFF431C03D12368002B00D02B6070BDC04610020020704770470B1F1A68101F002A04DA89185F
:4026400004390B68D0180438704700000000000064F5FF7F010000002530326C753A2530326C753A2530326C750000002530326C752F2530326C752F2530326C75000000B5
:40268000207C20000D00000000300F40000400400F40000400001F003B005A0078009700B500D400F300110130014E011F1C1F1E1F1E1F1F1E1F1E1F030405060708090AC9
:4026C0000B0C0E0F101112131415161718191B1C1D1E1F2021222325262728292A2B2E2F3031323334354300232D302B2000686C4C00656667454647003031323334353687
:4027000037383941424344454600303132333435363738396162636465660000F8B5C046F8BC08BC9E4670476901000041050000F8B5C046F8BC08BC9E467047410100007C
:4027400050270000C800002088000000C80000000000000018020020050000000000044000366E01C05D0000180000000000E02E010000000000000000000000000000003E
:402780000000000000000000000000000000000000000000E6260000000000000000000000000000000000000000000000000000000000000000000000000000000000000D
:4027C0000000000000000000000000000000000000000000EC00002000000000000000000000000000000000000000000000000000000000000000000000000000000000CD
:402800000000000000000000000000000000000000000000000000000000000000000000000000000000000000000000000000000000000000000000000000000000000098
:402840000000000000000000000000000000000000000000000000000000000000000000000000000000000000000000000000000000000000000000000000000000000058
:402880000000000000000000000000000000000000000000000000000000000000000000000000000000000000000000000000000000000000000000000000000000000018
:4028C00000000000000000000000000000000000000000000000000000000000000000000000000000000000000000000000000000000000000000000000000000000000D8
:0200000490303A
:02000000679502
:0200000490402A
:200000000000000000000000000000000000000000000000000000000000000000000000E0
:0200000490501A
:0C000000000204C81193110104D57928F6
:0200000490600A
:0100000001FE
:00000001FF