:400000000010002011000000F9030000F903000010B500F013FAC04670B5164C23688022D20213432360182000F09AFA2268124B13402360114A124B1A602022114B1A609B
:40004000103A114B1A6082221206104B1A60002525600F4A0F4B1A600F4A104B1A601049092000F03BFA092000F02CFA0D4B1D6070BDC04600010B40FFFFFBFF0600008012
:4000800004010B400C0202401C02024008010B400500008000000240CF00008040000240710700000C020B4010B572B601222F4B1A7000240FE02E486200131959000B00F4
:4000C000411889881A5AC31858880004104300F073F90134E4B2012CEDD925490C312548483000F04FF990221204234B1A600622224B1A60EE221202214B1A6099231B048A
:40010000204A1360204A1360802189021F4A11601F4A136001211F4B196002221E4B1A601E4803783A32934314221343DBB203701B4A107816230343DBB213702023194A46
:400140001360C0208002184A1060184A1360184B19600922174B1A60D8221201164B1A60FFF75AFF00F03EF910BDC0461C700F40606A0000E06A0000000001400800014076
:400180000C00014000500F4020500F4028500F4030500F402000004000800F4001700F4000700F4000000440080004401800044000020440180204400803044010B5064C5A
:4001C0002378002B07D1054B002B02D0044800E000BF0123237010BD98010020000000002C6A0000084B10B5002B03D00749084800E000BF07480368002B00D110BD064B2D
:40020000002BFBD09847F9E7000000009C0100202C6A0000C00000200000000070B51600002405E04D1C087800F0D0FC01342900B442F7DB300070BD70B5061C022406E017
:40024000631E174A99008958A400A1501C00002CF6D101250CE0AB00124A9858104A995801F060FE011C301C01F070FF061C0135022DF0D90A4B1E6000250DE0A200094BE7
:400280009B18D868064BD15801F04CFE011C281C01F0D2FC051C0134022CEFD9281C70BD18020020C400002070B50A4C236801332360094D2E68002000F052FBA08002F083
:4002C000CBF8FFF7B9FF0423E05E00F013FC2E6070BDC046B401002010021A4010B501F0F3F900F039FF0B4B1860020B0724224093009A185300010A0F2211405918030953
:4003000023409C00E3185C0010402218024802F0BFFD10BD14020020386A000010B500F045FC134800F018FC00F082FB00F0F0FA00F070FA00F0FEFA00F01CFC00F00AFB65
:4003400000F0C8FB0B4802F01FFE01F0B3F90A490A4801F023F862B6FFF7C0FF084B1A68FA239B009A42F9D1FFF7B8FFF6E7C046A9020000486A0000142022035059020029
:40038000B4010020F0B50025002711E0BB00C658F3B2FF22964308E06A008A181478A419527822700135013BDBB2002BF4D10137082FEBD9F0BDC04610B50A00002102F0BE
:4003C000E9F810BD064B1B68002803D080221206134301E05B005B08014A13607047C04680031A4010B50822024B1A600120FFF7E9FF10BD00031A4010B502F09FF80368E1
:400400000C2B00D1FEE7FEE710B50300094A1068C318094A9A1AC02189008A4202DC054A136005E002F08AF80C2303600120404210BDC046DC0000209002002070B50F4E0E
:400440000F4D13E029686B68AC68002202E001C901C30432A242FAD1E868002202E0002102C304328242FAD11035013E002EE9D102F06AF8FFF752FFFEE7C046010000004C
:40048000506E000010B500230AE0032B03D89A000949505800E009489900094A885001332F2BF2D9FFF700FE8022D205116801230B43136010BDC04600000000F903000027
:4004C000000000201F2318401E3B8340014A13607047C04600E100E001BE704770B504000D001F2802D90020FFF7F6FF1034A40080239B059C4664442068256070BDC0461C
:4005000070B504000E00032902D90020FFF7E4FF1F2C02D90020FFF7DFFF03252540ED00063501F02BF9A408A400074B9C46644421680323AB4099430B003100A94019437D
:40054000216001F01FF970BD00E400E010B5034B1B7B584301F008F910BDC046E0000020F0B557464E46C0B483B0040001F006F90190E71E2D2F74D83F4B1B78DBB29C42C0
:4005800008D83E4B1B78DBB29A463D4B1B78DBB2994631E03B4B1B78DBB29C4208D83A4B1B78DBB29A46394B1B78DBB2994623E0374B1B78DBB29C4208D8364B1B78DBB2CA
:4005C0009A46354B1B78DBB2994615E0334B1B78DBB29C4208D8324B1B78DBB29A46314B1B78DBB2994607E02F4B1B78DBB29A462E4B1B78DBB299462D4BDE5D2F2E09D988
:400600002A2C07D919222B4B1A60052001F0ACF8192503E0274B1D683F231D40B54206D9234BDA5D234B1A60052001F09DF81F4B9C4664442378DBB21F4A13601F4B5246C0
:400640001A601F4B4A461A600520FFF77FFFB5420AD2174BDA5D174B1A60052001F084F802E00020FFF738FF019801F08BF803B00CBC91469A46F0BDC0F1FF0FC1F1FF0F7F
:40068000C2F1FF0FC3F1FF0FC4F1FF0FC5F1FF0FC6F1FF0FC7F1FF0FC8F1FF0FC9F1FF0FCAF1FF0FCBF1FF0FCCF1FF0FCDF1FF0F4C6B00002CFF0B4028FF0B401CFF0B40E7
:4006C00020FF0B40034B1868C0231B02184000D00120704700010B4010B501F04FF8044A1368C02109020B43136001F04BF810BD00010B4010B501F041F808490A68084BB1
:400700001A408024E40122430A600A6813408022120213430B6001F035F810BD00010B40FF3FFFFF70B5050001F028F80400FFF7C9FF002803D0FFF7DDFF012100E000216B
:4007400008482840084A1568084B2B40184310601368012901D1FFF7BFFF200001F012F870BDC0460404040010020B40FBFBFBFF10B5244B1B685B0715D5234B1B685B0741
:400780000ED5224BD969042001401F4C22688A432260DA698243DA611B69002B00D098470420FFF7BFFF174B1B685B0518D5164B1B685B0510D5154BD9698022D2001140C3
:4007C000114802688A430260D969114A0A40DA615B69002B00D098478020C000FFF7A2FF084B1B685B030CD5074B1B685B0304D5064B9B69002B00D098478020C002FFF7A8
:4008000091FF10BD10020B40F4000020BC010020FFFBFFFF10B503210E20FFF771FE23490E20FFF75BFE0122214B1A60214B1B68002B01DA204900E02049214A13680B43CC
:400840001360204A204B1A60204A214B1A600023204A1360204A21490A6021490A6021490A688020400202430A601F4A13601F4A136001331E4A136002211E4A11601E49BD
:4008800008681E4A024013430B6000230BE09A001B495018002101605C001A4821521A481A4950500133002BF1D010BD8D09000020001A4080031A40700210517002005161
:4008C00000001A4084000A8004001A400000FF0718001A401C001A400400040010001A4014001A4000031A4028021A4038021A4018021A40000F1A4030001A40FFFFFFDFAC
:4009000080001A40280200203E1800002402002010B5074B1B68002B08DB054A1368802109060B4313600A20FFF710FE10BDC04600001A4010B5064B1B78002B04D1FFF71A
:4009400069FF0122024B1A70FFF7E2FF10BDC046DC0100200122014B1A60704724001A4010B5041E02D00020FFF7B6FD002C07D1A400054B9C46644420680004000C00E0D4
:40098000002000B210BDC04680011A40014B1A681A60704710021A40034A117880235B420B43DBB21370704772000F40014B18707047C04683000F40014B1878C0B27047F8
:4009C00063000F40014B18707047C04623000F40014B1878C0B2704743000F40014B18707047C04603000F4010B501E0FFF7F0FFFFF7E2FF0307F9D410BDC04610B5FF20D8
:400A0000FFF7E0FFFF20FFF7E9FF00F0B7FE074A117810230B43DBB2137000F0B3FEFFF7E3FF0020FFF7C2FF10BDC04693000F4010B5064B1B78002B04D1FFF7DFFF01222F
:400A4000024B1A70FFF7A8FF10BDC046DD01002010B500F093FE0F4C23680F22934319000D4B1B7813400B4323600C4A136813600B4B1C680B492140196011688F24E4007A
:400A8000214311601A68802149020A431A6000F079FE10BD04FF084061F1FF0F0800084004000840FFFFFEFF10B500F067FE074A1368C02189000B431360054A136880213A
:400AC00009060B43136000F05DFE10BD080008400400084010B5064B1B68002B04D1FFF7B7FF0122024B1A60FFF7DEFF10BDC046E001002010B5040000F040FE044A1368DC
:400B0000FF218B431C43146000F03CFE10BDC04608000840014B18647047C0460000002010B5040000F02AFE044A1368C0218B43A4011C43146000F025FE10BD00E400E08D
:400B40000122014B1A60704700E100E00122014B1A60704780E100E010B50400FFF7F6FF2000FFF7D7FF0320FFF7DAFFFFF7E8FF10BDC0468022D201014B1A607047C046F9
:400B800000E100E010B500F07DF810BD10B500F02BF810BD10B5044A1368802109060B431360FFF7EFFF10BD0000074010B5064B1B78002B04D1FFF7E9FF0122024B1A7060
:400BC000FFF7E8FF10BDC046E4010020044B1B680F221340082BF9D0024B18607047C0460802074040020740134A144B1A600023134A13601349144A1160072213490A604F
:400C000013490A60134A13600121134A11601349134A1160134A1360134A1360134A1360134A1360134A1360134A1360134A13601268134B1A8070470B00000200000740D7
:400C40004000074001000A004800074000030740040307401003074044000740070000800002074004020740880E0740C80E0740480F0740080F0740C80F0740880F0740C7
:400C8000E6010020064A1168064B0B40902109040B431360044B1A88044B1A607047C04600000140FFFF0FFFE6010020880F0740F8B54F464646C0B480468946030B032593
:400CC0001D40FA2189000A006A43030A0F210B40642043439D1843461B090B409A00D3185B005B1945460D405D1900260027574C1FE0A30705D16421200000F0CDFD002964
:400D000008D1C8214900200000F0C6FD002903D1012302E0012300E00023002B04D04C4A0023B6185F4103E04A4A0023B6185F410134AC42DDD343461B0F012213409A00E7
:400D4000D3185B004246120E0F210A409B185A1E52004149545A022B16D9AB0705D16421280000F099FD002908D1C8214900280000F092FD002903D1012302E0012300E09D
:400D80000023002B00D0013434494C4322000023B6185F4143461A0D03252A4093009B185B004246120C0F2422409B184B432C4A9818002136184F414B461B0D2B409A00DF
:400DC000D3185B004A46120C14401B198022120449460A4000D00122002A0DD08022D20349461140914201D1012200E00022002A02D00B2B00D80C33E12212015A431000BF
:400E0000002136184F414B461B0B072423409900CB1859004B461A0A0F231A4089180A01521A9000002136184F414A461209224091008A18520049460B40D01800218019A3
:400E400079410CBC90469946F8BDC046B20700000085E2018033E1017C6B00008051010080AEFEFF70B50C00431E0F4AD3181D7E022816D18B0705D16421200000F00CFD5E
:400E8000002908D1C8214900200000F005FD002903D1012302E0012300E00023002B00D00135280070BDC0467C6B0000F0B55F4656464D464446F0B485B0824614001D007A
:400EC000A04BA14A0296039717001DE0009A019BA41A9D410137BB0705D16421380000F0DBFC002908D1C8214900380000F0D4FC002903D1012302E0012300E00023002B2F
:400F000001D0924B00E08F4B009300230193002DDCD1009A019B9D4201D19442D6D8B84641460120FFF79EFF894B5843012399460AE0A41BBD4101239C46E1444146484628
:400F4000FFF790FF824B584306000027AF42F0D1A042EED97E4A00232000290000F08CFD7B4941430A000023AB4203D1A14201D900220023A41A9D41471CE12212010023DF
:400F80002000290000F078FD0090E121090141430E9B002B14D0002D03D10AD16D4B9C4207D9009B0C2B0ED90C38009001239B460EE0009B002B09D19B460C33009307E09F
:400FC00000239B4604E001239B4601E000239B460A000023AB4203D1A14201D900220023A41A9D413C2200232000290000F044FD06000101891B8A000023AB4203D1A2429A
:4010000001D900220023A41A9D41029403950A21484600F0BBFB05070A21484600F03CFC0C0625430A21380000F0B0FB04052C430A21380000F030FC0D042C43FA218900E8
:40104000404600F0A3FB05032543FA218900404600F022FC0C006421200000F097FB000205436421200000F017FC0C000A21200000F08CFB000105430A21200000F00CFC35
:401080000D4353465D600E9BDB055A4695052B431C000A21009800F079FB050525430A21009800F0F9FB0C0425430A21300000F06DFB04032C430A21300000F0EDFB09021E
:4010C0000C430A21029D039E280000F05FFB000104430A21280000F0DFFB0C4353461C604B46022B05D80C239C46E1440D3B9C46E044484601301A2358430A2100F046FBE9
:401100003F184744434698083F186421404600F03DFB4300181840003F18C8214900404600F034FB3818072100F0B6FB002900D107315346996005B03CBC90469946A24612
:40114000AB46F0BD8033E101B20700000085E20180510100C1A8000010B582B0074B1A685B68074CA068002112184B41054C00912000FFF79BFE206802B010BD80020020E6
:40118000E801002064020020F0B55F4656464D464446F0B483B0834689461700009319001000FFF75FFE824601230193984601262DE0022F04D838000C30009B5D1E01E0FE
:4011C000009D380001301A2358430A2100F0DEFA34186019AC0804196421280000F0D6FA430018184300E418C8214900280000F0CDFA2018072100F04FFB002900D107318C
:401200008B4503D101239C46E04401960136C84501D85645CDD90A21380000F0B7FA04070A21380000F038FB09060C430A21019D280000F0ABFA000504430A21280000F0E3
:401240002BFB09040C43FA218900009D280000F09DFA00030443FA218900280000F01CFB0D006421280000F091FA000204436421280000F011FB0D000A21280000F086FAE8
:40128000000104430A21280000F006FB2000084303B03CBC90469946A246AB46F0BDC046F0B589B005003C4B1A685B680021009104A8FFF7FBFD059A130B03211940FA23F9
:4012C0009B004B431E00110A0F242140642003004B43F118130923409800C3185800091822408C182B7D012B3ED12B69AE680A210393180000F04AFA07070A21039800F00B
:40130000CBFA09060F430A21300000F03FFA000507430A21300000F0BFFA09040F43FA218900200000F032FA00030743FA218900200000F0B1FA0E006421300000F026FAF2
:4013400000023C0004436421300000F0A5FA0E000A21300000F01AFA000104430A21300000F09AFA0C4306E023002A69E9686868FFF70AFF04002E680A21300000F006FA20
:4013800005050A21300000F087FA090429432000FFF78EFC09B0F0BD80020020F0B583B001900E000B0D032423409A00D31858000F0C0F231F40C7190A0F01210A4091009E
:4013C0008A185100300E18400D18320B1440FA22920062431000340A1C4064210A006243841832091A4091008A18510064183340E41801993000FFF75BFC324B1860596018
:40140000314B5E60019A1A60022D01D80C35013C681C1A2358430A2100F0B8F9C7193F19A308FF186421200000F0B0F9430018184300FF18C8214900200000F0A7F9381878
:40144000072100F029FA002900D107311E4B99601E48FFF725FF1E4C206161611D48FFF71FFFA061E161174B1A685B682069616999421FD801D190421CD8124B18685968B2
:40148000134B9A69DB69994214D801D1904211D80122114B1A70E12212010D4B9A6009490C684D680D4A01235B4212196B410A604B6004E00023084A1370054A936003B072
:4014C000F0BDC046800200206402002030020020E80100204C02002078020020F0F1FFFF10B51A4B197502681A6042685A60C268DA6082689A6002691A611800FFF7D0FEC5
:40150000134B18615961134A106851681A695B698B4215D801D1824212D80E4B186859680B4B9A69DB6999420AD801D1904207D80122094B1A70E1221201054B9A6004E04F
:401540000023054A1370024A936010BD30020020E8010020800200207802002010B51A4B197502681A6042685A60C268DA6082689A6002691A611800FFF792FE134B9861B0
:40158000D961134A106851681A695B698B4215D801D1824212D80E4B186859680B4B9A69DB6999420AD801D1904207D80122094B1A70E1221201054B9A6004E00023054AB4
:4015C0001370024A936010BD4C020020E80100208002002078020020F0B5474680B486B001242B4B1C702B4D0023AB602A4A13602A4A137002222A4BDA606B461C75032624
:401600000096019406239846039316270297049601216846FFF764FF6B461C75009601944346039302970433049301216846FFF795FF1C48FFF734FE286169611A48FFF7C5
:401640002FFEA861E961194B1A685B6828696969994214D801D1904211D8144B186859680C4B9A69DB69994209D801D1904206D801220A4B1A70E1221201064B9A600C4956
:401680000020FFF78BFE06B004BC9046F0BDC04648020020E8010020740200207802002064020020300200204C020020800200207019010110B5034B1B78002B01D1FFF7DD
:4016C0008BFF10BD4802002070B5214B1A6A19688C4662441A621A6A5B689A4236D31D4B1C685D68012000210019694118605960174A00211162186859685369126990424D
:4017000008D1994206D10122134B1A70E12212010F4B9A600E4CA269E369A0680021121A8B410C490868496882420FD18B420DD10023094A1370A3600848FFF7B1FD2061A1
:4017400061610748FFF7ACFDA061E16170BDC046E80100208002002078020020300200204C020020000000000230800804D0C0460138FDD1C046C046C0467047EFF3108068
:4017800072B6704780F310887047C046002243088B4274D303098B425FD3030A8B4244D3030B8B4228D3030C8B420DD3FF22090212BA030C8B4202D31212090265D0030B58
:4017C0008B4219D300E0090AC30B8B4201D3CB03C01A5241830B8B4201D38B03C01A5241430B8B4201D34B03C01A5241030B8B4201D30B03C01A5241C30A8B4201D3CB025A
:40180000C01A5241830A8B4201D38B02C01A5241430A8B4201D34B02C01A5241030A8B4201D30B02C01A5241CDD2C3098B4201D3CB01C01A524183098B4201D38B01C01A6B
:40184000524143098B4201D34B01C01A524103098B4201D30B01C01A5241C3088B4201D3CB00C01A524183088B4201D38B00C01A524143088B4201D34B00C01A5241411A42
:4018800000D20146524110467047FFE701B5002000F0F0F802BDC0460029F7D076E7704703460B437FD4002243088B4274D303098B425FD3030A8B4244D3030B8B4228D3D5
:4018C000030C8B420DD3FF22090212BA030C8B4202D31212090265D0030B8B4219D300E0090AC30B8B4201D3CB03C01A5241830B8B4201D38B03C01A5241430B8B4201D3A2
:401900004B03C01A5241030B8B4201D30B03C01A5241C30A8B4201D3CB02C01A5241830A8B4201D38B02C01A5241430A8B4201D34B02C01A5241030A8B4201D30B02C01AB5
:401940005241CDD2C3098B4201D3CB01C01A524183098B4201D38B01C01A524143098B4201D34B01C01A524103098B4201D30B01C01A5241C3088B4201D3CB00C01A5241F9
:4019800083088B4201D38B00C01A524143088B4201D34B00C01A5241411A00D201465241104670475DE0CA0F00D04942031000D34042534000229C4603098B422DD3030AF5
:4019C0008B4212D3FC22890112BA030A8B420CD3890192118B4208D3890192118B4204D389013AD0921100E08909C3098B4201D3CB01C01A524183098B4201D38B01C01A80
:401A0000524143098B4201D34B01C01A524103098B4201D30B01C01A5241C3088B4201D3CB00C01A524183088B4201D38B00C01A5241D9D243088B4201D34B00C01A524130
:401A4000411A00D20146634652415B10104601D34042002B00D54942704763465B1000D3404201B5002000F005F802BD0029F8D016E770477047C046002B11D1002A0FD1F9
:401A8000002900D1002802D00021C943081C07B4024802A14018029003BDC046D9FFFFFF03B4684601B5029800F006F8019B9E4602B00CBC7047C046F0B54D4656464446FB
:401AC0005F46F0B4924683B004000D0099468B422FD82CD04946504600F024FD29000600200000F01FFD331A9846203B9B4600D574E053465A4693401F0053464246934092
:401B00001E00AF4229D826D05B46A41BBD41002B00DA79E0002200230092019301235A4693400193012342469340009319E08242D0D900220023009201930C9B002B01D0C7
:401B40001C605D600098019903B03CBC90469946A246AB46F0BDA342D6D900220023009201934346002BE8D0FB0772081A4346467B080EE0AB4201D1A2420CD8A41A9D41B0
:401B8000012024196D410021013E24184D41002E06D0AB42EED9013E24196D41002EF8D15B460098019900196941002B22DB2B005A46D3402A004446E2401C005B461500D2
:401BC000002B2CDB26009E40330026004746BE403200801A994100900191AEE7424620239B1A5246DA40414613004A468A4017001F4382E7424620239B1A2A0046469A4056
:401C00002300F3401343D5E74246202300219B1A0022009101920122DA40019282E74246202326009B1ADE402F00B446974066463B003343C9E7C046F8B54A0243024400C3
:401C40004E00C50F240E28009B09360EC90F92098D4259D0A01B002800DC8DE0002E1AD1002A00D079E05A0704D00F221A40042A00D004335A0138D50134FF2C00D189E006
:401C800028009B015B0AE4B25B02E4055B0A2343C0071843F8BDFF2CE5D08021C9040A431B2800DD89E016002021C640081A8240511E8A4132439B1A5A0114D59B019E092D
:401CC000300000F011FC05388640844265DC041B330020200134E340041BA640721E964100243343BFE75A07BFD1DF082800FF2C2FD1002F00D187E08022D20313003B437D
:401D00005B025B0AFF24BFE7A11B002949DD002E29D0FF2CA7D08026F60432431B2900DD8DE017002026CF40711A8A40511E8A413A439B185A01D6D50134FF2C64D00122B9
:401D400076491A405B080B4013438CE7031ECAD100207B025B0AE4B296E701380028AAD0FF2C9DD17FE7002A00D17CE701390029DFD0FF2CD2D176E7002820D1601CC0B286
:401D8000012853DD80279E1AFF0437402FD0D61A0D0095E72800002376E7614B241A334061E700294DD1611CCEB2012E2FDDFF292AD09B185B080C0055E701227BE7002C7C
:401DC0001BD1002B5BD0C04300280CD0FF2E7ED01B2800DD92E01D002024C540201A8340581E83412B43D31A34000D0064E7002E00D065E700200024ABE7FF2E67D08024E1
:401E0000E40440422343E3E7FF2400233CE7002C61D1002B7ED0002A00D124E79B185A0100D460E73E4A0C0013401CE7002C1ED1002B2FD1002A66D013000D0013E70122CC
:401E400077E7002C1FD1002B5AD0C94300290BD0FF2E50D01B295FDC1F002024CF40611A8B40591E8B413B439B18340062E7002B1CD1002A4AD013000D00FF24F3E6130083
:401E800034000D00EFE6FF2E35D08024E40449422343DFE7002A00D1E5E68027981AFF04074000D152E7D31A0D00DCE6FF24002A00D1D8E68020DB08C003034204D0D20853
:401EC000024201D113000D00DB00FF24CBE61300FF240D00C7E6002B0DD0FF24002A00D1C1E68021DB08C9030B42EDD0D2080A42EAD11300E8E71300FF24B4E6012372E7D6
:401F000013003400AFE60027002022E780270020FF03F1E61300A6E60123A5E7FFFFFF7DFFFFFFFBF0B557464E4645464300E0B446028846760A1F0EC40F002F47D0FF2FD2
:401F400025D0002380259A469946F600ED042E437F3F434642465D02D20F5B006D0A1B0E904640D0FF2B39D080220020ED00D20415437F3BFB1842465746591C62408C46B2
:401F800007430F2F5CD86F49BF00C9598F46002E45D108239A46063B9946DAE7424602282DD0032800D1C3E0012800D0A2E0002500260240D4B27602ED05760A2E43E407A5
:401FC000264330001CBC90469946A246F0BD002E1AD104239A46033B9946BAE72A00511E8A41901CC6E70120002DC3D0280000F07BFA431F76309D4043420020BAE70124CD
:40200000FF2514400026D6E7300000F06DFA431F9E400023763047429A46994699E70C239A46093B994694E780260024F603FF25C1E735004846B2E7350022004846AEE7DB
:402040002904090C0800370C3604360C2C0C7943704367437443060C64183619B14203D980214902884647440004000C310409188D01681E8541890E2943350CED19AD0126
:402080000D43290104D5012369081D4063460D4319007F31002925DD680704D00F202840042800D00435280103D5274980330D401900FE29A3DC0124AD016E0A1440CDB291
:4020C00079E78020C003064207D0054205D128434602760A4446FF256DE706437602760AFF2568E70124611A1B2905DD14400025002660E76346CBE72E002023CE40591AFF
:402100008D406B1E9D412E43730704D00F233340042B00D00436730104D5012401251440002648E70124B601760A1440002542E780260124F6032E437602760A1440FF25EA
:4021400039E7C046A06B0000FFFFFFF7F8B54A024E0043024400240EC50F9B09360EC90F9209FF2E00D183E001204140A01BA9425CD0002800DC95E0002E1CD1002A00D0A6
:4021800081E05A0704D00F221A40042A00D004335A013BD50134FF2C00D191E001209B015B0AE4B205405B02E4055B0AED0723432B431800F8BDFF2CE3D08021C9040A43E6
:4021C0001B2800DD90E016002021C640081A8240511E8A4132439B1A5A0115D59B019E09300000F081F90538864084426CDC041B330020200134E340041BA640721E964121
:4022000000243343BDE70D005A07BCD1DF0801231D40FF2C33D1002F00D190E08022D20313003B435B025B0AFF24BCE700284FDD002E2ED0FF2CA4D08025ED042A431B2869
:4022400000DD97E016002025C640281A8240501E824132439B185A01D5D50134FF2C6DD001227B481A405B08034013430D0088E7002A00D07AE777E7031EC5D100257B02E0
:402280005B0AE4B28FE701380028A4D0FF2C97D177E7002A00D174E701380028DAD0FF2CCDD16EE7002821D1601CC0B2012858DD80279E1AFF0437402FD0D61A0D008FE7B7
:4022C00001231D4000236EE7624B241A334058E7002851D1601CC6B2012E33DDFF282DD09B185B0804004CE7012274E7002C1AD0FF2E1FD08024E404404223431B2800DD16
:4023000096E01D002024C540201A8340581E83412B43D31A34000D005EE7002E00D05FE700250024ABE7002B44D0C0430028F0D0FF2EE3D11300FF240D0022E70D00FF2403
:40234000002330E7002C5DD1002B7DD0002A00D117E79B185A0100D456E73E4A040013400FE7002C1ED1002B2FD1002A65D013000D0006E701226DE7002C1FD1002B59D0CB
:40238000C04300280BD0FF2E4FD01B285EDC1D002024C540201A8340581E83412B439B18340058E7002B1CD1002A49D013000D00FF24E6E6130034000D00E2E6FF2E34D066
:4023C0008024E40440422343DFE7002A00D1D8E68027981AFF04074000D14DE7D31A0D00CFE6FF24002A00D1CBE68020DB08C003034204D0D208024201D113000D00DB007A
:40240000FF24BEE6002B10D0FF24002A00D1B8E68020DB08C003034203D0D208024200D11300DB000D00FF24ABE61300FF24A8E601236EE713003400A3E6002700251EE7B4
:4024400080270025FF03E9E613009AE60123A6E7FFFFFF7DFFFFFFFB70B5002830D0C317C5185D40C40F280000F03EF89E231B1A962B0DDC9622D21A95406A02520AD8B2DC
:402480005202C005520AE40702432243100070BD992B19DC9922D21A9540124A2A40690704D00F210D40042D00D00432510103D50C4B1A409F231B1A9201520AD8B2DFE7D1
:4024C000002400200022DBE705222E00121AB921D6402A00C91A8A40551EAA4135001543DBE7C046FFFFFFFB1C2101231B04984201D3000C10391B0A984201D3000A083920
:402500001B09984201D30009043902A2105C40187047C0460403020201010101000000000000000010B5002903D1FFF7DDFF203002E0081CFFF7D8FF10BDC046014B1868F9
:402540007047C046580100200E4B70B500251E000D4CE41AA410A54204D0AB00F35898470135F8E704F062FC084B00251E00084CE41AA410A54204D0AB00F3589847013500
:40258000F8E770BD386E0000386E0000386E0000406E000003008218934202D019700133FAE77047F0B58BB014001D1E129906DA802424061B191D0014002D2300E0002396
:4025C0000B702023149E03229E43462E07D03300453B59424B411099013ACB18109309AB049308AB0393139B00920293109B220001932B0000F02EFE0700472E02D1119BCA
:40260000DB072DD5109BFB180793462E14D13B78302B0CD1002200232000290002F0C2FB002804D10123109A9B1A139A1360139B079A1B68D3180793002200232000290058
:4026400002F0B0FB3022002802D0079B099307E0099B0799994203D9591C09911A70F7E73800099B159ADB1B13600BB0F0BDF7B52B2307000C000270861C002901DA2D2309
:402680004C427B70092C1CDD6B46DD1D20000A21FFF7ECF9013D3031297020000A21FFF7FFF804000928F1DC013D30342C706B4607333000AB4209D92B7801353370013655
:4026C000F5E73023E4183370B01C7470C01BFEBDF0B595B00C000A920B931A9D099001F007FD036818000D9300F058FC0023129323680E900C930C99277E2B680722C90586
:4027000001D59B1800E0073393431A0008322A601A685B68A264E3640122E56CA66C6B005B080F935242C04B30000F9904F086F8002819D10122BC4B524230000F9902F037
:4027400041FB002810D1002200233000290002F02FFB002803D023002D2243331A70B34D472F0ED8B24D0CE032002B003000290004F064F8002800D19AE1AE4D472F00D8E3
:40278000AD4D03230C9A236101339A432260002642E0672F00D193E1472F00D190E10C9A0021134312AA059211AA0392232223600691019308A9636852180292009332006F
:4027C0002B0004970998FFF7EDFE20233A0005009A43472A00D18EE11199652F00D996E1200001393A0050301191FFF740FF129A060083182361012A00DD85E12268D20766
:4028000000D581E1232308AA9B181B78002B03D023002D2243331A700B9B13AA009321000A9B099800F0A4F9431C02D1012040429BE12268530501D4236964E0652F00D885
:40284000CCE0A06CE16C0022002302F0ABFA00282CD00123794A0A9909980B9DA847431CE4D0119B129A934208DB2368DB0705D4236800259B0700D50FE113E10B9D0E9BCC
:402880000D9A0A990998A8470025431CCED0129B013B9D42ECDA220001231A320A9909980B9EB047431CC1D00135F0E7119B002B2BDC0123614A0A9909980B9EB047431C2B
:4028C000B4D0119B002B05D1129B002B02D12368DB07CDD50B9E0E9B0D9A0A990998B0470026431CA2D0119B5B429E420ADA220001231A320A9909980B9FB847431C95D072
:402900000136F0E7129B2A00ACE0A36D129E9E4200DD1E00002E05DC00230C93F343DB170F9315E033002A000A9909980B9FB847431CF1D17AE7220001231A320A99099859
:402940000B9FB847431C00D170E70C9B01330C930F9BA26D0C993340D31A9942EBDBAE18119B129A93420DDB2368DB070AD4129B119AED18AD1B9B1A9D4200DD1D00002D48
:4029800009DC11E00E9B0D9A0A9909980B9FB847431CECD14AE72B0032000A9909980B9EB047431C00D141E7EF43FB1700260C930AE0220001231A320A9909980B9FB847AC
:4029C000431C00D132E70136119A129B0C999B1A2A000A409B1A9E42EBDB49E7129B012B02DC01231A4245D001232A000A9909980B9FB847431C00D118E70E9B0D9A0A99FD
:402A000009980B9FB847431C00D10FE7A06CE16C0022002302F0C6F9002801D000251AE0129B6A1C013B26E0FFFFEF7FEC6B0000E86B0000F46B0000F06B0000F86B000017
:402A4000220001231A320A9909980B9FB847431C00D1EBE60135129B013B9D42F0DB2200330050320A9909980B9DA847431C00D0FEE6DBE62A000A9909980B9DA847431C23
:402A8000EDD1D3E62200012319320A9909980B9EB047431C00D1C9E60135E368139A9B1A9D42EFDB139BE06898425EDA18005CE080236268DB00511C00D06AE6073202E073
:402AC000002A02D10122626069E60C9908A80B430021069112A9059111A90391232109182360019300922B000497029132000998FFF758FD0500119BDA1C02DB6268934203
:402B00001CDD023FFFB267E6013323617AE6662F15D16368002909DD2161002B02D12268D2071ED50133591821611AE0002B03D101222168114213D09A1C11E06727119B37
:402B4000129A934206DB22682361D20709D50133236106E00121002B01DC4918C91A8A182261119B0026A3654CE615B0F0BDC046F7B5170001938A680B6900900C0093424B
:402B800000DA130022003B6043321278002A01D001333B6023689B0602D53B6802333B60062523681D401ED0230043331B785A1E9341226892061CD53020E118433108706B
:402BC00021005A1C45310978A2184332023311700FE022000123193201990098089EB047431C0ED00135E3683A689B1A9D42F0DBDAE72200019943320098089DA847431CD7
:402C000002D10120404220E006232068E1683A6803400025042B03D18D1AEB43DB171D40A3682269934201DD9B1AED180027BD420AD0220001231A3201990098089EB0478F
:402C4000431CDED00137F2E70020FEBDF0B58BB006920A0043320793059004920A7E0C00109B6E2A00D1ABE011D8632A22D009D8002A00D1B5E0582A00D0C5E045310A70AC
:402C8000814A4FE0642A1DD0692A1BD0BCE0732A00D1AAE009D86F2A29D0702A00D0B3E0202209680A43226037E0752A1FD0782A33D0A9E00E001A684236111D196013689E
:402CC0003370A4E021681A68080606D4490604D5111D19600023D55E02E0111D19601568002D3BDA2D23049A6D42137036E021681A68080606D4490604D51568111D1960D8
:402D0000ADB202E0111D196015685F4B227E039308276F2A1DD00A271BE022007821453211705A4A19680392081D226818600D68100602D4500600D5ADB2D30702D52023FA
:402D40001A4322601027002D03D1202322689A4322602300002243331A7002E00A274A4B03936368A360002B09DB0422216891432160002D05D1049E002B11D07BE0002D73
:402D800079D0049E28003900FEF786FD039B013E5B5C280033703900FEF7F8FC051EF1D1082F09D12368DB0706D563682269934202DC3023013E3370049B9B1B23612BE06E
:402DC00009681A68080607D4490605D5111D19601368A28A1A8004E0111D1960136862691A600023049E236116E01A68111D1960166800216268300001F0ECF9002801D0CB
:402E0000801B6060636803E0260042363270012323610023049A1370079B09AA00932100069B0598FFF7A4FE431C02D10120404227E02369320006990598079DA847431CB6
:402E4000F4D0236800259B070FD4099BE068984217DA180015E022000123193206990598079EB047431CE1D00135E368099A9B1A9D42F0DBE9E72600039B42361B78337057
:402E80008EE70BB0F0BDC046FA6B00000B6C00000FB40B4B13B51C68002C05D0A369002B02D1200001F090F805AB049AA1682000019301F06FFD16BC08BC04B01847C04633
:402EC0005801002070B505000E00002804D08369002B01D101F078F8AB69AC68002B02D1280001F071F8254B9C4201D16C6808E0234B9C4201D1AC6803E0224B9C4200D126
:402F0000EC68A3891B0702D52369002B11D12100280000F0A3F800280BD0012040422BE0013B0136A360002B08DB23685A1C226019703178A3680029F2D10BE0A2699342FF
:402F400001DB0A29F1D12200280000F02FF8431CEFD1E2E7013BA360002B08DA22000A31280000F023F8431CD7D00A2004E00A2023685A1C2260187070BDC0462C6C000047
:402F80004C6C00006C6C000010B5034B01001868FFF798FF10BDC046580100200023C25C0133002AFBD1581E70470000F8B505000F001400002804D08369002B01D101F0D1
:402FC00003F8234B9C4201D16C6808E0214B9C4201D1AC6803E0204B9C4200D1EC68A369A360A3891B070AD52369002B07D023682269FEB2981A636998420FDB08E02100A0
:40300000280000F02BF80028F1D0012040421DE02100280000F06AFF0028F6D1A3680130013BA36023685A1C22601F706369984205D0A3893000DB0708D50A2E06D12100E8
:40304000280000F053FF0028DFD13000F8BDC0462C6C00004C6C00006C6C0000364B70B51D6806000C00002D05D0AB69002B02D1280000F0A9FF314B9C4201D16C6808E002
:403080002F4B9C4201D1AC6803E02E4B9C4200D1EC680C22A35E9AB2110723D4D10607D409220120326037321343A381404242E0530713D5616B002908D02300443399424E
:4030C00002D0300001F092FB002363632422A3899343A38100236360236923600822A3891343A3812369002B0BD1A0238022A1899B0092000B40934203D02100300001F0B2
:4031000021F80123A289134005D00023A36063695B42A36103E0920700D46369A36000202369834207D10C22A35E1A0603D540221343A381013870BD580100202C6C00008A
:403140004C6C00006C6C0000F0B503690C6989B00700059100269C4279DC0B00013C1433A50003935B1904930300143302935D19049B28681B68591C0193FEF707FB01909D
:40318000B04233D0039B02989C460696634604CB9C46019B91B25943120C5A4389190B0CD3180793069A1E0C038889B29B1802685B1A110C6A46928B8A1A1914521811142A
:4031C0009BB21204134308C0049B06916345DDD22B68002B0AD1029B043DAB4201D33C6104E02B68002BFAD1013CF4E70599380001F014FA002829DB0020019B02990133DB
:40320000039A019340CA0B881818B3B2C31A0868360C000C801B1D14451928149BB22D042B4308C1049B9342ECD2029AA300D3181A68002A0AD1029A043B9A4201D33C616A
:4032400004E01A68002AFAD1013CF4E7019E300009B0F0BDF0B516001F00446A9DB00490259D06960797002C08D1102000F0A8FF049B5862446084600460C460049B5B6AA8
:40328000196800290BD05A68012393404A608B60049800F0EBFF0022049B5B6A1A60079B002B05DA01232B607B005B08079301E000232B60079CC84B220019931A409A42A9
:4032C00019D1C64B249A1360069AC54B002A02D1240300D1C34B269A1800002A01D100F07DFDD978DA1C002900D00532269918000A6000F073FD069E079F002200233000DA
:40330000390001F04FFD051E0ED00123249A1360B54B269A1800002A01D100F05FFDB34A26990A6000F05AFD1AAB01931BAB009332003B00049801F0F7F9630005905B0D38
:4033400009D03A03AA4C120B1443AA4A300021009E1817951AE01A9B1B9A9E18A64BF318202B08DDA54A0698B218D0404022D31A9C40204303E020220698D31A984003F070
:40338000F5FA01239E4C013E0919179300229D4B02F000FF9C4A9D4B02F082FC9C4A9D4B01F02EFD040030000D0003F09DFA9A4A9A4B02F075FC02000B002000290001F0A4
:4033C0001FFD04000D0003F059FA0022039000232000290001F0ECFC00280DD0039803F083FA02000B002000290001F0DBFC43424341039AD31A039301231693039B162B5D
:4034000011D88749DB00C91808684968069A079B01F0E2FC002805D0039B013B03930023169300E016901A9B9E1B00230B93013E0C9604D50C9B5B420B9300230C93039BFB
:40344000002B08DB039A0C9B944663440C9300231192089307E00B9B039A9B1A0B935342089300231193229B0125092B25D8052B02DD0025043B2293229B981E032824D82F
:4034800001F076FC060E0204012302E0012308E000231093239B002B20DD1F000A9321E00023239A1093039B9F187B1C0A930123FA18002A16DD130014E0012700237F42A2
:4034C000229310950A97123305E0012701237F4210930A9711330022239203E001273B000A972397049A546A00226260043211001431994204D86168520001316160F6E72C
:403500006168049800F07AFE049B20605B6A1B680D930A9B0E2B00D981E1002D00D17EE1069B079C14931594039B002B31DD0F223B491340DB00CB185C681B680E930F9485
:40354000039B02241D11EB060AD514981599354B15401A6A5B6A01F07FFF069007910134304E002D0ED001231D4208D00E980F99E4183268736802F093FB0E900F916D1061
:403580000836EEE70E9A0F9B0698079901F064FF4CE0039B02245D42002D49D0149815990F231F4A2B40DB00D3181A685B6802F077FB0023069007911A4E2D11002D33D049
:4035C0000122154205D0A4183268736802F068FB01236D100836F1E70000F07F0F270000256C00001C6C0000F86B0000F96B00000000F03F01FCFFFF320400001204000044
:40360000000010FE0000F83F61436F63A787D23FB3C8608B288AC63FFB799F501344D33F986C0000706D0000002B01D006900791169B002B1DD0069D079E0022C74B28002F
:40364000310001F0B5FB002813D00A9B002B10D0002F00DCDFE0039B3100013B0E930022BF4B280002F01CFB0134069007913E0002E0039B0A9E0E93200003F035F9069A9F
:40368000079B02F00DFB0022B64B01F0B9FBB64A12901391129C139D9446139B634418931D00002E1CD1069807990022AF4B02F071FD2200189B0690079101F08DFB002892
:4036C00000D054E2AA481399844661440B0006980799220001F06CFB002800D03DE29AE0109A731EA349DB00002A49D0CB181A685B680020A04901F0AFFE2B00220002F010
:4037000049FD129013910D9D0698079903F0B6F8040003F0E9F802000B000698079902F039FD01356B1E30341C70129A139B0690079101F03DFB002800D02EE3069A079B7E
:403740000020864902F026FD129A139B01F030FB002800D0C7E00D9BEB1AB3425BDA1298139900227E4B02F09BFA002212901391069807997A4B02F093FA06900791C3E7CF
:40378000C9182200086849682B0002F089FA0D9C12901391A5190698079903F06FF8060003F0A2F802000B000698079902F0F2FC303626700134069007910022A54222D1E7
:4037C0006D4B1298139901F01BFB02000B000698079901F001FB002800D084E0129A139B0020654902F0D6FC02000B000698079901F0DEFA00280ED06B1E1A78302A00D0D5
:40380000CBE21D00F8E706980799554B02F048FA06900791BFE7149B159C069307941B9B002B00DA81E0039A0E2A00DD7DE0D300504AD3185C681B6808930994239B002B7A
:4038400015DA0A9B002B12DC00D088E1089809990022464B02F024FA069A079B01F0C6FA0A9B08931E00002800D07BE182E10D9D069E079F089A099B3000390001F0ECFDD8
:4038800002F0FCFF040003F02FF8089A099B02F007FA02000B003000390002F07BFC220001356B1E30321A700D9B0A9AEB1A9A422ED102000B0001F0A3FA06000F0002003A
:4038C0000B000898099901F073FA00280FD10898099932003B0001F065FA002800D15EE2E30704D45BE20E9B039300E01D006B1E1A78392A08D10D9A9A42F7D1039A0D99BD
:403900000132039230220A701A7801321A7046E20022134B02F0C4F90022002306000F0001F040FA0028A5D039E2109A002A44D0229A012A0BDC179A002A02D00F4A9B18A1
:4039400002E036231A9A9B1A089D0B9C29E00A9B5D1E089BAB4213DB5D1B18E00000F03F0000244000001C400000C0FC000014400000C07C986C00000000E03F33040000AB
:40398000089B0895EA1A0025119B9B1811930A9B002B04DA0B9B0A9A9C1A002301E00B9C0A9B0B9A0121D2180B920C9A0498D3180C9300F0FBFC060002E0089D0B9C109EBA
:4039C000002C0ED00C9B002B0BDD0C9A2300944200DD13000B9AE41AD21A0B920C9AD31A0C93089B002B20DD109B002B17D0002D11D031002A00049800F06AFD059A010092
:403A00000600049800F0DBFC05990E90049800F02DFC0E9B0593089B5A1B06D000E0089A0599049800F054FD05900121049800F0BDFC119B0890002B00D1C0E11A00010008
:403A4000049800F045FD229B0890012B17DC0025069BAB420ED1079B1B03AB420AD1199B079A134206D00B9B013501330B930C9B01330C93119B0120002B0DD000E0002568
:403A8000089B089A1B690E9303339B00D318586800F042FC2023181A0C9BC0181F23184009D001331B1A042B02DD1C23181A03E0042B08D018001C300B9B24181B180B93A2
:403AC0000C9B1B180C930B9B002B05DD1A000599049800F051FD05900C9B002B05DD1A000899049800F048FD0890169B002B1DD00899059800F092FD002817DA039B0A2232
:403B0000013B039305990023049800F0C8FB109B0590002B00D159E1310000230A22049800F0BDFB0600002F37DC33E00A9B0A9F002B2ADC229B022B27DD002F12D10899EE
:403B40003B000522049800F0AAFB08900100059800F064FD00280DDC04E0089602E000231E000893239B0D9DDB4303930AE00E9B089603930D9B0D9A5D1C31231370039BBA
:403B8000013303930A960026F3E0109B002B04D10D9DB5E0229B022BCFDC002C05DD31002200049800F0E8FC06000A96002D12D07168049800F022FB3100040033690C310D
:403BC0009A1C92000C3000F010FB01222100049800F0D2FC0A900D9B7D1E0B935B190E9308990598FFF7B0FA310010900400059800F014FD0A9A05000899049800F029FDCB
:403C000001230C93C36830340700002B04D10100059800F003FD0C903900049800F026FB0C9B229A134308D1069A0133134204D1392C2AD0002D1CDC1DE0002D06DB229B3F
:403C40001D431BD10123069A134217D10C9B002B11DD05990122049800F08EFC0899059000F0DCFC002802DC05D1E30703D5392C0BD0109C31340B9B5D1C0FE00B9B5F1C44
:403C80000C9B002B0CDD392C05D10B9B0B9A5D1C3923137057E03D000B9B01341C7068E00B9B0E9A3D001C7093423CD000230A220599049800F0F3FA0A9B05909E4208D1F7
:403CC000310000230A22049800F0E9FA06000A900DE0310000230A22049800F0E0FA002306000A220A99049800F0D9FA0A900B9776E700230A220599049800F0D0FA05909A
:403D000008990598FFF720FA0D9B3030287001350400EB1ABB42ECDB3D1E00DC01250A9600260D9B5D1905990122049800F024FC0899059000F072FC002804DC13D1E3077A
:403D400001D410E01D006B1E1A78392A08D10D9A9A42F7D1039B013303933123137008E001321A7005E06B1E1A78302A01D11D00F9E70899049800F079FA0A9B002B0ED064
:403D8000002E05D09E4203D03100049800F06EFA0A99049800F06AFA01E00E9B03930498059900F063FA00232B70039B249A01331360269B0D98002B10D01D600EE0229B94
:403DC000012B00DC43E6119D012065E6002F00DDDEE6229B022B00DCDAE6AEE61DB0F0BDF7B58A8905000C0013075AD44B68002B02DC0B6C002B19DDE76A002F16D000231F
:403E00002E682B6080235B011A4001D0606D14E00123216A2800B847431C0ED12B68002B0BD01D2B01D0162B02D12E6000205AE04022A3891343A38155E0A3895B0706D50E
:403E40006368C01A636B002B01D0236CC01A00230200216A2800E76AB847A389421C06D129681D293AD8204ACA40D20736D50022626022692260DB0405D5431C02D12B6831
:403E8000002B00D16065616B2E600029CED023004433994202D0280000F0A8FC0020606321E00F69002FC1D00B680F60DB1B01930023920700D14B69A36003E0019B3F187B
:403EC0001B1A0193019B002BB0DD019B3A00216A2800A66AB0470028F0DCA389402201201343A3814042FEBD010040200B6970B505000C00002B01D100201CE0002804D09B
:403F00008369002B01D100F05FF80B4B9C4201D16C6808E0094B9C4201D1AC6803E0084B9C4200D1EC680C22A35E002BE4D021002800FFF755FF70BD2C6C00004C6C000020
:403F40006C6C000010B5024900F0B0F810BDC046ED3E0000002310B5040003604360836081814366C281036143618361190008225C30FEF70FFB054B24626362044BA36257
:403F8000044BE362044B236310BDC046F14B0000194C0000514C00007D4C000070B568254B1E5D430E002900743100F06BFC041E08D000212A00016046600C30A0606832AE
:403FC000FEF7E8FA200070BD836913B50400002B28D18364C3640365134B144A1B6882620193984201D101238361200000F020F86060200000F01CF8A060200000F018F8B4
:404000000022E06004216068FFF7A4FF01220921A068FFF79FFF02221221E068FFF79AFF0123A36113BDC046E46B0000453F0000F8B51D4B06001D68AB69002B02D12800D6
:40404000FFF7C2FF4835AC686B68013B05D40C22A75E002F10D06834F7E72B68002B01D02D68F0E704213000FFF798FF28600028F6D10C23336016E0012320005B42E38103
:404080000233A38167662760A760676027616761A7615C3008223900FEF77CFA20006763A763A764E764F8BDE46B0000F7B504000700002601914834002C16D06368A568B0
:4040C0000093009B013B00930DD4AB89012B08D90E22AB5E013304D029003800019B984706436835EDE72468E6E73000FEBD0000004870475C01002070B50E001D000E2389
:40410000C95E90B01400002906DA00232B60B3891B060FD540230FE001AA00F0DBFD0028F3DBF023029A1B021340054A9B185A4253412B608023DB000020236010B070BD67
:4041400000E0FFFFF7B502268B8905000C00334210D101AB6A46FFF7CFFF00990700280000F090FB00280CD10C22A35E9A0523D43343A381230047332360236101236361BF
:404180001AE080220D4BAB62A38920601343A381009B20616361019B002B0AD00E23E15E280000F0A9FD002803D00122A3891343A381A3891F43A781F7BDC046453F000071
:4041C00010B5034B0100186800F05CFB10BDC04658010020C9B28218904204D003788B4202D00130F8E700207047002310B59A4203D0CC5CC4540133F9E710BD70B5466A4F
:4042000004000D00002E07D11020FFF7D9FF6062466086600660C660666AF368002B09D0636AAA00DB689B18186800280ED002681A6017E021220421200000F0C9FA636A8A
:40424000F060DB68002BEBD100200EE001210E00AE40721D9200200000F0BAFA0028F3D04560866000230361C36070BD70B5456A06000C00002D07D11020FFF7A1FF7062E3
:40428000456085600560C560002C07D0726A6368D2689B00D3181A6822601C6070BDF7B5070008000C000D691E00002101921430019A0388013153439B190668360C564395
:4042C0001A0C9446B4446246160C120494469BB2634408C08D42EBDC002E1BD0A3689D4212DB63683800591CFFF788FF2100236901909A1C92000C310C30FFF776FF21004A
:404300003800FFF7B3FF019C2B1D9B00E31801355E6025612000FEBD00220300010C914201D103041032190E01D108321B02190F01D104321B01990F01D102329B001000B8
:40434000002B03DB20205B0000D5501C70470722036810B501001A400CD001240020234223D10222134203D0E34020000B601CE09B0818E098B2002801D110221B0CD8B2BB
:40438000002801D108321B0A180701D104321B09980701D102329B08D80704D45B082020002B02D0013210000B6010BD10B50C000121FFF723FF01234461036110BDF0B595
:4043C0000B691400126989B00D00934201DA25000C002F692669AA68BB1969680193934200DD0131FFF70AFF0200BB1914329B00D3189C46002113000290634501D202C3B4
:40440000FBE71435BF00EB191434B6000593A31903950793079B9C4251D2208800281ED015000026039F08CF069504936B461B8A434319002B88CB1804999B19090C41434E
:404440002E68360C89191E0C89190E0C9BB209040B4308C5059BBB42E5D8069B5E6023681D0C1FD0002110001368039F04913E8801686E43090C7118049E9BB289190E0407
:404480003343036008CF86881B0C6B43090C9B195B18190C0491059906900430B942E6D806994B6004340432B4E704235B429C4463461B68002B05D1019B013B0193019B26
:4044C000002BF2DC029B019A18001A6109B0F0BD0323F7B5134005000E001400002B08D02349013B9A00525800233100FFF7D7FE0600A310019338D06C6A002C07D11020D9
:40450000FFF75EFE6862446084600460C4606F6ABC68002C10D117492800FFF747FF0023B8600400036007E0019B5B1001931CD02068002810D004000122019B1342F3D006
:40454000310022002800FFF73AFF070031002800FFF78CFE3E00E7E7220021002800FFF72EFF002320600360E5E73000FEBDC046606D000071020000F0B50C0017002369C0
:40458000551185B0EB180193013300934968A3680290009A934202DA01315B00F9E70298FFF72CFE00230200060019001432AB4203DA980011500133F9E7EB43DB171D4064
:4045C0002300AD0055192269143392009A1894461F22174014D00132D21B0392002219682800B9400A4304C504CB0399CA409C45F5D84260002A07D0019B0233009303E075
:4046000004CB04C59C45FBD8009B0298013B33612100FFF72BFE300005B0F0BD03690A6910B59B1A0400181E12D1930014341431E218C918043A043913680868834204D0E7
:4046400083429B410120184302E09442F2D3002010BDF0B50C0085B00700110020001500FFF7DCFF061E07D101003800FFF7C6FD01234661036155E000230193984204DAEE
:4046800023002C001D000123019361683800FFF7B5FD019B26692F00C3601434B300E318020002932B69002514379B00FB180393143208CC69469C4608CF043200936346E7
:4046C0008B808B885D19009B9BB2EB1A65460193009B2D0C190C019B691A1D14131F9C466B4649199B880D1409040B4361460B60039BBB42DDD8029913008C420BD202CC62
:404700008BB25B191D14090C49190D149BB209040B4308C2EFE7043B1A68002A01D1013EF9E7066105B0F0BDF7B51D000121089F1400FFF763FD2B036D0006001B0B6D0DD5
:4047400002D08022520313430193002C18D068460094FFF7FCFD009C002809D0019B20211A00091A8A40C34022437261019300E07461019CB461631E9C410134346107E07B
:4047800001A8FFF7E4FD0124019B346173612030002D06D00B4BED1835232D183D60181A0BE0094BC018094B3860E3189B00F3185869FFF7B1FD6401201A099B1860300041
:4047C000FEBDC046CDFBFFFFCEFBFFFFFFFFFF3F4A4370B51100140000F054F8051E03D022000021FDF7D6FE280070BD70B50500002944D00C1F2368002B00DAE418280080
:4048000000F0A0FA1E4A13681100002B02D16360146031E0A3420DD92268A018834203D118685B688218226063600C6024E0A24203D813005A68002AF9D11E689819A042DB
:404840000BD12168711858181960824214D110685268411819605A600EE0A04202D90C232B6009E021686018824203D1106852684118216062605C60280000F064FA70BDE6
:4048800010020020032370B5CD1C9D43083506000C2D01D20C2501E0002D01DBA94202D90C23336048E0300000F04CFA234B1C681A002100002913D00B685B1B0DD40B2BF9
:4048C00002D90B60CC181EE08C4202D1636813601AE04B6863600C0016E00C004968E9E7174C2368002B03D1300000F06FF920602900300000F06AF9431C18D00323C41CC4
:404900009C43A0420DD12560300000F01CFA200007220B30231D9043C31A0ED05A42E2500BE0211A300000F051F9431CEBD10C233000336000F007FA002070BD10020020F0
:404940000C020020936810B5013B9360002B05DA9469A34208DBCBB20A2B05D01368581C10601970C8B201E0FEF720FB10BDF8B506000F001400D518AC4208D021783A0048
:404980003000FFF7DFFF0134431CF5D100E00020F8BD0000F0B59FB006000F0002920593002804D08369002B01D1FFF70DFB7F4B9F4201D1776808E07D4B9F4201D1B768EE
:4049C00003E07C4B9F4200D1F768BB891B070AD53B69002B07D0002306AD6B6120336B761033AB763DE039003000FEF737FB0028F1D001204042D6E0059A111D126805910B
:404A0000002A00DA7FE00992013423782E2B00D18DE0217803226848FFF7DCFB002807D0654B2A68C01A4023834013432B6001342178631C0622614802932976FFF7CAFBA7
:404A4000002800D19DE05E4B002B00D090E00722059B07339343083305936B69039A9B186B61029C2378002B04D1029BE31A049312D003E0252BF8D00134F3E7049B029A7F
:404A800039003000FFF773FF431C00D186E06A69049B944663446B612378002B7ED00122002352426A6002A95432521801342B60EB60AB601370AB65217805224148FFF795
:404AC00089FB002808D03F4B2A68C01A0123834013432B600134EFE72B68DA0604D55322202102A8121811701A0704D553222B2102A81218117022782A2A00D17CE7099B3C
:404B000000200A2105E05242EA60022213432B607AE72278303A092A04D84B4301349B180120F6E7002800D16FE709936DE763782A2B0AD1059B02341A1D1B680592002BDE
:404B400001DA01235B42079363E700230A201A0001346B6021783039092904D84243013452180123F6E7002B00D152E7079250E705AB00933A00144B29003000FDF7A8FD46
:404B800007E005AB00933A000F4B29003000FEF75DF80390039B013300D05EE7BB895B0600D526E70B981FB0F0BDC0462C6C00004C6C00006C6C00009E6D0000A26D00002C
:404BC000D1260000986D00006F490000002370B5064C050008002360FBF716FC431C03D12368002B00D02B6070BDC0468802002070B50C000E25495F00F0A6F8002803DB12
:404C0000636D1B18636503E0A289024B1340A38170BDC046FFEFFFFFF8B51F008B8905000C001600DB0505D50E23C95E0022022300F074F8A289054B28001340A3813200B0
:404C40000E23E15E3B0000F01FF8F8BDFFEFFFFF70B50C000E25495F00F060F8A389421C03D1054A1340A38104E0802252011343A381606570BDC046FFEFFFFF10B50E233C
:404C8000C95E00F015F810BD70B50500080011000022064C22601A00FBF7C0FA431C03D12368002B00D02B6070BDC04688020020002370B5064C05000800236001F08EFE3C
:404CC000431C03D12368002B00D02B6070BDC04688020020002370B5064C050008001100236001F083FE431C03D12368002B00D02B6070BD88020020002370B5064C05002C
:404D00000800236001F07AFE431C03D12368002B00D02B6070BDC0468802002070B50500080011000022064C22601A0001F06EFE431C03D12368002B00D02B6070BDC04637
:404D4000880200207047704770B50500080011000022064C22601A0001F060FE431C03D12368002B00D02B6070BDC0468802002002B4714649084900095C49008E4402BC13
:404D80007047C0468446101C62468C46191C634600E0C0461FB500F019FF002801D40021C8421FBD10B500F06DFE4042013010BD10B500F00BFF002801DB002010BD0120B1
:404DC00010BDC04610B500F001FF002801DD002010BD012010BDC04610B500F093FE002801DC002010BD012010BDC04610B500F089FE002801DA002010BD012010BDC046F8
:404E0000F8B556465F464D464446F0B40F00FD0FAA4609037C002E005F00450F490A7F0D2943C5001803BC46400A570F640DDB0F3843D2009A4500D1AAE06646A61B002EF5
:404E400000DCFFE06346002B39D10300134300D0D9E06B0709D00F232B40042B05D02B1DAB42AD416D4249191D000B0200D482E0CA4B01349C4200D1FEE00A005646C84BA7
:404E8000ED081A405007640552020543120B640D002112030B0D1B056405120B1A436308C04CF60714401C43640064083443280021003CBC90469946A246AB46F8BDB74B74
:404EC0009C42C6D080231B041843382E00DDEBE01F2E00DD1EE120239B1B9C4603006746BB40984613004746F3403B436746BA40571EBA4113430200F240EB1A9D42B641B9
:404F00001D008A1A7642911B0B0231D54A02560A002E00D1B4E03000FDF7E6FA0300083B1F2B00DDB5E020222900D21AD1409E400A009D4032439C4200DDB1E01C1B631C50
:404F40001F2B00DDD5E0202114002800C91A8C40D8408D400443DA40681E854111002543002476E74146314300D134E2310045466B0700D06FE756464807ED08C90805436E
:404F8000864B9C4235D00A036405120B640D7FE76346E31A9B46002B00DC8BE06746002F3CD07E4FBC4200D153E780273F0438435B46382B00DCF7E00243501E824100206A
:404FC000D2B253194218AB4289411D00494289180B02CDD5714B01349C4200D13DE101206F4A6B080A4028401843D507054351082FE72B000B4300D1CBE180231B030B4308
:405000001A03120B44E7013E002E6DD1AE1AB5429B41091A5B42C91A350075E70700174300D116E701235B429C46E3445B46002B00D0E0E0AA18AA429B4109185B42591883
:405040001500C5E7002E75D1661C7605760D012E00DCF3E0AE1AB0464545BF410E1A7F42F61B370200D48FE0551BAA42B641411A76428E1B9A464BE756460022002507E7ED
:405080002800FDF731FA20300300083B1F2B00DC49E72A002838824000259C4200DC4DE73F49E41A1140D4E60243501E8241D3B2002222E7002B00D0F3E0631C9C465B0518
:4050C0005B0D012B00DC9FE0344B9C4500D1C3E0AA180918AA42804140424118CD075208154349086446B4E62C4B9C4200D0ECE6AFE611001F3CE1400C00202B00D17FE0C7
:405100004021CB1A9A4015436A1E95410021254300242DE733000700203BDF403B00202E70D04027BE1BB0400243501E824113430022E2E6002C4FD0184CA44500D1ABE081
:405140008024240476422143382E00DDDFE01F2E00DD43E12027BC1BA1460C004F46BC40A0462C004746F4403C434F46BD406F1EBD41F1402C43151BAA429241411A524268
:40518000891A64469A46BFE641464546314300D0BEE6002600240025F2E6C046FF070000FFFF7FFFFFFF0F801F2B59DC2027FF1ABC46070063469F405B46B9461700DF4081
:4051C000B8464F4643461F4363469A40531E9A415B463A43D840F4E60C002C435CD0F643002E55D1551BAA42A441411A6442091B9A46644688E6964FBC4200D0D8E628E641
:40520000002280E700208FE70B002B43002C00D0C2E0002B00D101E10300134300D118E6AB18AB42B6410918764271180A0200D409E1884A1D00114064460AE6002C5BD12D
:405240000E002E4300D08AE00100114300D1C2E0010015009A46FCE56446002100258FE620235B429C46DC4463460700DF405B46BC46202B00D1ACE040235F46DB1B98409F
:405280000243501E8241634613431A00002098E66F4CA44500D057E70100150064469A46D7E5002C39D10C002C436ED0DB43002B1AD0674CA44568D0382B00DDA4E01F2BAF
:4052C00000DDAEE020240F00E41AA740B9462F00DF40B846A3464F46444627435C46A5406C1EA541D9403D43AD1895429B4109185B42591864466BE60C002C4315D10100BA
:4053000011437BD0010015009A46514CA1E50D43691E8D410021ECB22DE74D4CA44534D0802424045B422143C6E7040014434ED0ED084C072C438025C9082D03294208D024
:40534000C6082E4205D1D208410711430C009A463100620FC900E50011433D4C79E50600164300D175E5AE1AB0464545BF410E1A7F42F61B370200D4F4E5551BAA42B64127
:40538000411A7642891B9A4663E50100150064465FE5002200257BE5002B3BD00300134315D0ED084B072B438025C9082D03294207D0C4082C4204D141070B002100D208F5
:4053C0001343C9005A0F1143DD00214C41E5204C3FE5002054E700260025D1E534000F00203CE7403C00202E2BD04027BE1BB1400D43691E8D4100212C43BCE6802100265B
:405400000903134C0025BBE50D43691E8D410021EDB269E7010015000D4C1AE50100150017E51C000F00203CE7403C00202B0CD04027FB1A99400D43691E8D410021254373
:4054400052E70021D4E71D0092E50021F3E7C046FF070000FFFF7FFFF0B556464D4644465F46F0B41D000E034C00CB0F87B0070092468146360B640D98466AD06D4B9C42C8
:4054800035D08022430F12041343F6001E43C3009946694B00279C460023644402932B0368001B0BED0F51469B46400D009500D178E0604B98426CD05B46DA004B0F8021FF
:4054C00009040B4313439B465346D9005A4B9C46002360444246201A6A40924601901F430F2F00D9B0E05548BF00C0598746374300D088E000239946023308270026029367
:40550000CDE74346B34649460093029B009A9246022B00D0BFE1002153460122002689461A40444B002136030C0D2405360B2643434C1B0526401E437600D20776081643CA
:405540004846310007B03CBC90469946A246AB46F0BD330003434FD0002E00D1BCE13000FCF7C2FF03000B3B1C2B00DDADE11D220100D31A08393A008F408E40DA40B94611
:405580001643304B00279C46002360444442029385E753465A4613432CD1002300219B46023397E70B4320D05B46002B00D19EE15846FCF799FF03000B3B1C2B00DD8FE1FC
:4055C00002005946083A91408B461D21CB1A5146D9400B0059460B4351469B469140194B9C4660444042002374E7002300219B4601336FE703236DE700239946013304279E
:40560000002602934BE703230C27029347E70122D51A382D00DCB0E153461A4000210023002689467EE700238026994600223603004B77E7FF07000001FCFFFFAC6D000026
:40564000FFFF0F80F30300005E4500D972E100D16DE1019B4D46013B01930023340002935B461E020B0E1E430B020393330C994633041B0C494620000093FCF787F8009B25
:40568000370043430600494620009846FCF704F92C0C09040C43A04509D9E419731EA74200D95CE1A04500D859E1023EE4194346E41A49462000FCF769F80300009A8046A1
:4056C0005343494620009B46FCF7E6F82A040904120C0A4393450DD94346D219013B974200D93AE1934500D837E102235B429C46D219E0445B46D21A4346360433439B46B0
:405700000399180C0B0C1D00059309045B46090C0C001B041B0C4443049159436B4368431B190D0CEB189C4203D980246402A44660441C0C09041B04090C20185D1882423B
:4057400000D2DEE000D1D7E0161A029B9C465D1BAC459B415B42F61AB74200D106E149463000FCF713F8009B04004343494630009846FCF791F82E0C09040E43B04509D955
:40578000F619631EB74200D9F3E0B04500D8F0E0023CF6194346F31A494618000293FBF7F5FF009B06004343494602989846FCF773F82D0409042D0C0D43A84509D9ED19EA
:4057C000731EAF4200D9D6E0A84500D8D3E0023EED192404210043463143049E059A3000ED1A0B040C0C1B0C58436643534354439A19030C9B189E4203D98022520294465C
:4058000064441A0C00041B04000C14191B18A54250D34DD001231943964A019B94466344002B00DCF3E64A0709D00F220A40042A05D00A1D8A42894149428B4411005A4617
:40584000D20108D55A468C4B1A4093468022D2009446019B6344894A934200DD5BE65A46C908500708435602514601225B058146360B5B0D0A4055E680231B031E4211D0FB
:405880005A461A420ED15E461E433603360B2A0089467B4B46E6032B00D1E1E0012BBBD11A40BBE61E433603360B4246744B39E6002BB1D07D194A1EAF4252D91100A54231
:4058C000A8D1039A9A42A5D1A6E703003E00283B9E400023994654E6FCF706FE203041E603005246283B9A400021934677E65046FCF7FAFD20305EE6029B0026AB4200D3C1
:4059000023E7039E0299B44661448846B045B6415B467642F619B218013B0291974213D290424FD800D18EE0161A9B460DE7894500D28EE674084B46F60735005B081D43B6
:405940004B46DB0702938BE69742EDD10399029CA142E5D93E1A9B46F7E69846CAE61E00A5E6AC423ED874D0110053E70121494252E71C000EE71E002BE71F2D3CDC20238E
:405980000A0058465B1B9840EA4099400243481E81415E461143EE404B0709D00F230B40042B05D00B00191D99429B415B42F61833023CD55346012200211A400026012345
:4059C0008946AFE502235B429C46039CE344A446029B63449846A045B6417642F6190293B218B1E603988A1E41008142B6417642F619AD19039161E71F225242D31A5A462C
:405A0000DA401300202D29D040225846551BA8400143481E814107200B4318400026002809D00F2200261A401900042ABBD10B0070077602360BDB080343994601225346B8
:405A40001A4000236EE502998D42BBD89B4600267BE603989842C5D3110032E70020D7E780265B4636031E433603360B009A8946034B57E5FF030000FFFFFFFEFE0700008C
:405A8000FF070000F0B55F4656464D464446F0B41F035C00DB0F9A46194B0E034D00C90F8046360B6D0D8B4691463F0B640D9D4219D0134B9C421BD00123A54206D018008B
:405AC0003CBC90469946A246AB46F0BDBE42F6D1C845F4D1D34510D0002DF0D1304303005A1E9341EBE7310001230143E7D1E0E73A430123002AE2D1DEE70023DFE7C04616
:405B0000FF070000F0B55F46444656464D46F0B41F033C0B2C4F0E034D00A3465C008446360B6D0DC90F9046640DDB0FBD422BD0254FBC422ED0002D0ED1304307008146EC
:405B400078427841002C17D15F463A4314D14B460020002B0AD006E0002C02D15846024301D099421AD00123484218433CBC90469946A246AB46F0BD0028F2D0584258412A
:405B8000012240421043F1E737000743D0D002204042EBE75F461743CDD0F8E7A542E2DC05DB5E45DFD808D000205E45DED248424841012340421843D8E7C445D3D8002032
:405BC000C445F4D3D2E7C046FF070000F0B55F464D4644465646F0B41C03240BA4462F4C0F034D005E00C90F80463F0B6D0D8B469146760DDB0FA54220D0284CA64222D05D
:405C0000002D12D1384344424441002E20D0002C0DD05C42634101245B421C4320003CBC90469946A246AB46F0BD002E17D05B4519D05B465C4201231C43EFE7390002245C
:405C40000143EBD1D9E7614602241143E6D1D7E761460A43DBD100240028DFD0E9E761460A43E4D1E5E7B54203DD01225C421443D4E7B542CDDB6745DBD809D0002467459D
:405C8000CCD259464C426141012449420C43C5E7C845CED80024C845F3D3BFE7FF070000F0B55F4656464D464446F0B40D0399464E002B0B87B00700924680469B46760D1C
:405CC000CC0F002E69D06D4B9E4235D05B468022DD001204430F13432B439B46C3009846674B00279C460023664401934A4615035000D20F53462D0B400D914600D176E0E6
:405D00005E4A90426CD080225B0F120413435C4AED0094461D4353460022DB00604449463618701C6140029017430F2F00D9AFE05448BF00C759BF465B461F4300D088E0D7
:405D400000239B469846023308270193CEE74946022A6AD0032A00D109E2012A00D0BBE111400022002300259046CCB200212D030A0D12052D0B1543434A1B0515401D439F
:405D80006D00E4076D0825434046290007B03CBC90469946A246AB46F0BD034352D05B46002B00D18AE15846FCF79EFB03000B3B1C2B00DD7BE11D22D31A3A0001005D46A8
:405DC000DA4008398D4013008F402B439B46B8462E4B00279C46002360444642019385E752462A432CD100250023022297E752462A4321D0002D00D154E12800FCF774FBDC
:405E000003000B3B1C2B00DD46E11D21CB1A51460200D9405346083A954093400D431B4A944660444042002279E7012400220C40124B0025904699E70025002301226EE714
:405E400003226CE700239B4698460133042701934CE703230C27019348E700238025984600242D03054B81E75D464346019A6FE75D4643462100019A6AE7C046FF07000072
:405E800001FCFFFFEC6D0000FFFF0F80F30300004246120C91461A0C9446424617044A461B041B0C5A43604690464A4642431000039262461C003F0C7A437C43424401929E
:405EC000220C9246019A5244904506D98246802040028046C24450460390100C049048462404240C1204121905922A0C2D042D0C68432C00824648467C4350438146200C98
:405F00008046574357444744BA4503D9802040028046C144380C3F04B84648442404240C01900498A044404404905846000C814658460404200C8246070048465F434C46ED
:405F40004343604660436446834650464443380C8446E4186444A34203D980235B029C46E34448463F04230C3F0C2404E419574668436F4384464D46504655434243380C88
:405F8000814662444A445B44944503D9802040028446654403983F04834604983F0C8446E344C345804140428246100484460198674484466744A344BC46A345A44199467F
:405FC000D44464428742BF41D4458041E144A04699459B417F424042C8440743120CBA18A045A4415F423B0064422343D71843467D19DB0D6D021D435B465A02059B1A4381
:40600000531E9A415B46DB0D1A4343465B021343EA0107D501225C0813402343EA07029E13436D08574AB218002A4BDD580709D00F201840042805D0181D98429B415B428A
:40604000ED180300E80104D54F4A15408022D200B2184E48824200DDE7E60124DB08680718436D02530580462D0B5B0D0C407DE6802259461203114208D0154206D1154371
:406080002D0398462D0B4C46414B6FE65D4615432D032D0B3E4B69E603005546283B9D400023BCE65046FCF71FFA2030A8E60300283B9F400023BB46984689E6FCF714FA12
:4060C000203073E60124A61A382E07DD00220C4000230025904649E6029EA3E71F2E20DC20222C001800921BF040944093400443581E83411C43F540630709D00F232340A3
:40610000042B05D023001C1D9C4292415242AD182B021FD5012400220C4001230025904624E61F202C004042821AD440202E1CD04022961BB5402B43581E83410720234304
:4061400018400025002809D00F2200251A401C00042AD8D1230068076D022D0B0124DB08034398460C40002300E60025E3E780220124120315432D0398462D0B0C40044B40
:40618000F4E5C046FF030000FFFFFFFEFE070000FF070000F0B557464E464546E0B40E001100F20F9246C500420F180337037400400A4E0F7F0A3043CF4E17435A00640D47
:4061C000520DDB0FC900B24200D1E5E001267340A61AB446534500D1AFE0002E00DC0DE1002A3AD103000B4300D0E4E06B0709D00F232B40042B05D02B1DAB42AD416D42A7
:406200007F191D003B0200D488E0BB4B01349C4200D110E13A00B94B51461A4001235007ED08520264050543120B640D0B400021280012030D0D120B64052D0515436208E6
:40624000AF4CDB072C401443640064081C4321001CBC90469946A246F0BDA74B9C42C5D080231B0418436346382B00DDFDE01F2B00DD30E1624620239B1A02009A40664664
:4062800090460A009940F24046464B1E99413243114363460200DA40691A8D429B410D00BA1A5B42D71A3B0235D57A02530A98464346002B00D1C4E04046FCF715F9030048
:4062C000083B1F2B00DDC5E020222900D21A4746D1409F400A009D403A439C4200DDC0E01C1B631C1F2B00DDE4E0202114002800C91AD8408C408D400443DA40681E85419D
:4063000017002543002471E7424663461A4300D14CE2674645466B0700D069E7012351467807ED08FA080B40054373498C4238D012036405120B640D79E7002E00DC9AE0C5
:40634000002A47D06C4A944200D14FE78022120410436246382A00DC08E10143481E81410022C9B24919D219A942BF410D007F42BF183A0200D442E15F4A0134944200D1D1
:406380004EE101205D4A69083A4028400843D507054357089A4629E706000E4300D017E714E72900114300D1F9E1802109030A431203120B3BE701235B429846C4446346EF
:4063C000002B72D1691A8D429B413F1A5B42FF1A0D0068E702000A4300D107E7012252429046C4446246002A00D0E6E06918A942B6413F187642F7190D00BAE7002E00D05D
:4064000080E0621C5205520D012A00DCF9E06A1A91464D45B6413A1A7642921B9046120200D499E04D1BA9428941C71B49427A1A90469A463CE752460123002513400022C7
:40644000F5E62800FCF750F820300300083B1F2B00DC39E72A002838824000259C4200DC3EE7264FE41A1740C0E60143481E81410022C9B210E7002E00D0F1E0621C94461B
:406480005205520D012A00DCA0E01B4A944500D1C5E06918A94292413F185242D2194908D5070D4357086446A0E6134B9C4200D0D9E69BE611001F3CE1400C00202B00D1C9
:4064C00080E04021CB1A9A4015436A1E95410027254300241FE763460200203BDA406346202B71D0402366469B1B98400143481E814111430022CFE6FF070000FFFF7FFFA2
:40650000FFFF0F80002C48D0CA4CA24200D1A2E07442A1468024240427434C46382C00DDDBE01F2C00DD44E14E462024A41B3E00A640A246B0464C462E00E640B44646468A
:40654000644626435446A5406C1EA54134002C434D46EF400D1B28E04A4643464D461A4300D0A5E6002300240025DEE61F2A5ADC66462022921B060096409146B046624685
:406580000E00D640424616434A4691404A1E9141020060463143C240E4E63C002C435AD0F443A146002C52D14D1BA9428941C71B49427F1A14009A4675E69E4A944200D011
:4065C000C7E613E600227FE700208FE7002C00D0C8E03B002B4300D10FE103000B4300D104E66918A9429B413F185B42DF193B0200D41AE1904B0D001F406446F6E59A46D1
:4066000089E63A002A43002C5CD1002A75D102000A4300D1CAE007000D009A46E6E564460022002581E662460600203AD6406246B046202A00D1B7E040226646921B9040A1
:4066400001434246481E8141114300228AE6794CA24200D061E707000D0014009A46C5E5002C41D13C002C4378D0F443A146002C20D0704CA24271D04C46382C00DDB2E01C
:406680001F2C00DDBCE02026341BA2463C005646B4404E46A0462C00F440A446444666463443A4465446A54064466E1EB54125434C46E7406D188D4289413F184942CF19BE
:4066C000140056E6002A2FD102000A4300D184E007000D009A46574C88E53D436F1EBD41ECB200270D1B60E7524CA24236D0744280263604A1463743BEE702000A4300D115
:4067000074E56A1A90464545B6413A1A7642921B9446120200D4F7E54D1BA9428941C71B49427F1A9A4661E502000A433AD0ED087C072C438025FA082D032A4208D0C7085B
:406740002F4205D145072C003A009A46C9080C43670FD200E5001743364C47E507000D00140043E53A002A4343D002000A4319D0ED087C072C438025FA082D032A4207D0A8
:40678000C6082E4204D147073C003200C9080C43D700620FE50017439A46264C26E50022002544E5234C21E5002049E700230025BBE54C463E00203CE6404C46B446202CBF
:4067C00031D040244E46A61BB7403D436C1EA54164462C4300270D1BE7E6802200231203144C0025A1E53D436F1EBD410027EDB260E707000D000F4CF8E407000D00F5E48E
:406800004E463C00203EF440A0464C46202C0ED040244E46A41BA7403D436F1EBD4144460027254346E70027CFE70D0073E50027F2E7C046FF070000FFFF7FFF70B50E4E1A
:406840000C031D0349005B00240B490D2D0B5B0DB14204D0084900208B4208D070BD04430120002CFAD1044900208B42F6D115432800451EA841F1E7FF0700000B0330B519
:40688000134D1A0B4B005B0DC90F0024AB4211DD104CA34210DC8024640322430E4CE41A1F2C0CDD0D48C31ADA4013005C42002900D11C00200030BD094BCC18FAE7E04047
:4068C000084CA44663449A4013000343EEE7C046FE0300001D0400003304000013040000FFFFFF7FEDFBFFFF70B5002830D0C317C4185C40C50F2000FBF7F6FD174B184A97
:406900001B1AD21A1F2A18DD164AD21A9440002224035B05240B5B0D0021100024030A0D1205240B1443104A1B0514401C436400ED0764082C43210070BD210091400A00E2
:406940000B21081AC4405B052403240B5B0DE3E70025002300240022DEE7C0461E0400003304000013040000FFFF0F8070B5051E28D0FBF7B9FD154B154A1B1AD21A1F2A76
:4069800016DD2C00134A0025D21A94405A052403240B520D002124030B0D240B1B0523430D4C1205234013435B002800590870BD0B212C00081AC440954024035A05240B0B
:4069C000520DE7E700220024E4E7C0461E0400003304000013040000FFFF0F8058220120014B40421A6070478802002058220120014B40421A607047880200205822024B07
:406A000000201A607047C0468802002058220120014B40421A6070478802002058220120014B40421A607047880200200000000088B0FF7F010000002530326C753A25301F
:406A4000326C750D0A000000446562756720696E666F2073746172742E2E2E0D0000000000300F40000400400F400004830DD608DB04DD905F906404670282088790D6301D
:406A8000D830E00452805B085D905F018301AF01B101B301B808BE04BF01C045C5ECC720C823C9FFCAFFCBFFCF01D018D401D804D90ADA0ADB0ADC90DD99DF01E040E24090
:406AC000E440E540E680E880EA80EC80EE801810220823802A803802428048024905500359055B80768078047F018C1093029804A608CA08CE01D001D208D60BDE121A05D3
:406B00002F206F208605C640CA80DA80E05059105A80680275108002D401DA02DC028E409680E0080201110101000F4003300F4008310F4025320F4018330F4008400F40BD
:406B400008420F4003430F4002600F40030405060708090A0B0C0E0F101112131415161718191B1C1D1E1F2021222325262728292A2B2E2F303132333435000000001F0027
:406B80003B005A0078009700B500D400F300110130014E011F1C1F1E1F1E1F1F1E1F1E1F402000009E1F00009E1F00009C1F00003220000032200000282000009C1F00007A
:406BC0003220000028200000322000009C1F0000382000003820000038200000C220000043000000F8000020494E4600696E66004E414E006E616E00300030313233343516
:406C000036373839414243444546003031323334353637383961626364656600496E66696E697479004E614E00000000000000000000000000000000000000000000000038
:406C40000000000000000000000000000000000000000000000000000000000000000000000000000000000000000000000000000000000000000000000000000000000014
:406C8000000000000000000000000000504F534958002E0000000000000000000000F03F000000000000244000000000000059400000000000408F40000000000088C3404D
:406CC00000000000006AF8400000000080842E4100000000D01263410000000084D797410000000065CDCD41000000205FA00242000000E876483742000000A2941A6D4205
:406D0000000040E59C30A2420000901EC4BCD64200003426F56B0C430080E03779C3414300A0D8855734764300C84E676DC1AB43003D9160E458E143408CB5781DAF154452
:406D400050EFE2D6E41A4B4492D54D06CFF08044F64AE1C7022DB544B49DD9794378EA4405000000190000007D000000000000000080E03779C34143176E05B5B5B893463F
:406D8000F5F93FE9034F384D321D30F94877825A3CBF737FDD4F1575232D302B2000686C4C006566674546470000000048560000165500001C5600000C5500001C560000F3
:406DC000265600001C5600000C5500001655000016550000265600000C55000002550000025500000255000078580000905E0000505D0000505D00004E5D0000685E000003
:406E0000685E00005A5E00004E5D0000685E00005A5E0000685E00004E5D0000705E0000705E0000705E000070600000F8B5C046F8BC08BC9E467047E501000085040000CB
:406E4000F8B5C046F8BC08BC9E467047BD010000606E0000C0000020D8000000F8000000000000000000803F8C4A92BF865AD33E03098A3D3A230A3E03098A3D900200203C
:406E8000010000000000E02EC05D00001800000000366E0104040400000000002C6C00004C6C00006C6C000000000000000000000000000000000000E06B0000000000006A
:406EC0000000000000000000000000000000000000000000000000000000000000000000000000000000000000000000000000000000000000000000F8000020926C00007C
:406F00009D6D00009D6D00009D6D00009D6D00009D6D00009D6D00009D6D00009D6D00009D6D0000FFFFFFFFFFFFFFFFFFFFFFFFFFFF000000000000000000000000000005
:406F40000000000000000000000000000000000000000000000000000000000000000000000000000000000000000000000000000000000000000000000000000000000011
:406F800000000000000000000000000000000000000000000000000000000000000000000000000000000000000000000000000000000000000000000000000000000000D1
:406FC0000000000000000000000000000000000000000000000000000000000000000000000000000000000000000000000000000000000000000000000000000000000091
:407000000000000000000000000000000000000000000000000000000000000000000000000000000000000000000000000000000000000000000000000000000000000050
:0200000490303A
:0200000060D1CD
:0200000490402A
:200000000000000000000000000000000000000000000000000000000000000000000000E0
:0200000490501A
:0C000000000204C81193110104EC7264AA
:0200000490600A
:0100000001FE
:00000001FF