:400000000010002011000000AD020000AD02000010B500F06DF9C04670B5134C23688022D20213432360182000F0C8FA22680F4B134023600E4A0F4B1A6010220E4B1A60CD
:40004000802212060D4B1A60002525600C4A0D4B1A600D49092000F07DFA092000F06EFA0A4B1D6070BDC04600010B40FFFFFBFF0600008004010B400C02024008010B40F8
:400080001000008000000240CD0700000C020B4010B572B600240FE022486200131959000B00411889881A5AC31858880004104300F0F6F80134E4B2012CEDD919480100F7
:4000C0000C31103000F0D2F890221204164B1A60EE221202154B1A6099231B04144A136080210906134A1160134A1360134A117806230B43DBB21370A022114B1A60862281
:40010000D203104B1A60802212020F4B1A6020220E4B1A60D82212010D4B1A60FFF77CFF10BDC04654510000000001400C00014000500F4004500F4030500F4000700F4050
:4001400000000440080004400C000440180004400803044010B5064C2378002B07D1054B002B02D0044800E000BF0123237010BD8001002000000000D44F0000084B10B5A7
:40018000002B03D00749084800E000BF07480368002B00D110BD064B002BFBD09847F9E70000000084010020D44F0000C00000200000000010B500F0B7F900F0AFF9034B86
:4001C0001A7801321A7001225A7010BD9C01002070B51600002405E04D1C087800F0F0F801342900B442F7DB300070BD10B5144800F086F900F092F900F0D2F862B611487B
:4002000000F050F9104800F04DF9104800F04AF90F4800F047F90F4800F044F9802292050D4B0E490E4801F06BF8FA20800000F0A3F90C4B19780C4801F062F8F5E7C04640
:40024000B5010000D84F00003050000068500000B05000002C5000005CAF424067C3FCFFF05000009C01002024510000F0B50025002711E0BB00C658F3B2FF22964308E087
:400280006A008A181478A419527822700135013BDBB2002BF4D10137002FEBD0F0BDC04610B50A00002100F0ADFB10BD10B500F07DFB03680C2B00D1FEE7FEE710B5030042
:4002C000094A1068C318094A9A1AC02189008A4202DC054A136005E000F068FB0C2303600120404210BDC046C4000020D001002070B50F4E0F4D13E029686B68AC680022FB
:4003000002E001C901C30432A242FAD1E868002202E0002102C304328242FAD11035013E002EE9D100F048FBFFF760FFFEE7C046010000000054000010B500230AE0032B35
:4003400003D89A000949505800E009489900094A885001332F2BF2D9FFF79AFE8022D205116801230B43136010BDC04600000000AD0200000000002010B500F07DF810BDC2
:4003800010B500F02BF810BD10B5044A1368802109060B431360FFF7EFFF10BD0000074010B5064B1B78002B04D1FFF7E9FF0122024B1A70FFF7E8FF10BDC0469E010020B1
:4003C000044B1B680F221340082BF9D0024B18607047C0460802074040020740134A144B1A600023134A13601349144A1160072213490A6013490A60134A13600121134AF7
:4004000011601349134A1160134A1360134A1360134A1360134A1360134A1360134A1360134A13601268134B1A8070470B000002000007404000074001000A0048000740D3
:4004400000030740040307401003074044000740070000800002074004020740880E0740C80E0740480F0740080F0740C80F0740880F0740A0010020064A1168064B0B40CA
:40048000902109040B431360044B1A88044B1A607047C04600000140FFFF0FFFA0010020880F074070B50500002402E0FFF788FF0134285D0028F9D170BDC046014B186406
:4004C0007047C0460000002010B5040000F0DAF9044A1368C0218B43A4011C43146000F0D5F910BD00E400E00122014B1A60704700E100E00122014B1A60704780E100E012
:4005000010B50400FFF7F6FF2000FFF7D7FF0320FFF7DAFFFFF7E8FF10BDC0460122014B1A60704780E200E0034B1868C0B27F2290431860C0097047100004401F231840FD
:400540001E3B8340014A13607047C04600E100E001BE704770B504000D001F2802D90020FFF7F6FF1034A40080239B059C4664442068256070BDC04610B5040006E0084B53
:40058000586800F075F9074B9C46644480231B029C42F4D8024B9868604300F069F910BDC80000200080FFFF10B5034B1B7B584300F05EF910BDC046C8000020F0B55746DA
:4005C0004E46C0B483B0040000F05CF90190E71E2D2F74D83F4B1B78DBB29C4208D83E4B1B78DBB29A463D4B1B78DBB2994631E03B4B1B78DBB29C4208D83A4B1B78DBB2A7
:400600009A46394B1B78DBB2994623E0374B1B78DBB29C4208D8364B1B78DBB29A46354B1B78DBB2994615E0334B1B78DBB29C4208D8324B1B78DBB29A46314B1B78DBB28A
:40064000994607E02F4B1B78DBB29A462E4B1B78DBB299462D4BDE5D2F2E09D92A2C07D919222B4B1A60052000F002F9192503E0274B1D683F231D40B54206D9234BDA5D0D
:40068000234B1A60052000F0F3F81F4B9C4664442378DBB21F4A13601F4B52461A601F4B4A461A600520FFF77FFFB5420AD2174BDA5D174B1A60052000F0DAF802E00020A0
:4006C000FFF746FF019800F0E1F803B00CBC91469A46F0BDC0F1FF0FC1F1FF0FC2F1FF0FC3F1FF0FC4F1FF0FC5F1FF0FC6F1FF0FC7F1FF0FC8F1FF0FC9F1FF0FCAF1FF0F12
:40070000CBF1FF0FCCF1FF0FCDF1FF0F685100002CFF0B4028FF0B401CFF0B4020FF0B40034B1868C0231B02184000D00120704700010B4010B500F0A5F8044A1368C021D1
:4007400009020B43136000F0A1F810BD00010B4010B500F097F808490A68084B1A408024E40122430A600A6813408022120213430B6000F08BF810BD00010B40FF3FFFFFFB
:4007800070B5050000F07EF80400FFF7C9FF002803D0FFF7DDFF012100E0002108482840084A1568084B2B40184310601368012901D1FFF7BFFF200000F068F870BDC04619
:4007C0000404040010020B40FBFBFBFF10B5244B1B685B0715D5234B1B685B070ED5224BD969042001401F4C22688A432260DA698243DA611B69002B00D098470420FFF754
:40080000BFFF174B1B685B0518D5164B1B685B0510D5154BD9698022D2001140114802688A430260D969114A0A40DA615B69002B00D098478020C000FFF7A2FF084B1B68B9
:400840005B030CD5074B1B685B0304D5064B9B69002B00D098478020C002FFF791FF10BD10020B40DC000020A4010020FFFBFFFF0230800804D0C0460138FDD1C046C0468C
:40088000C0467047EFF3108072B6704780F310887047C046002243088B4274D303098B425FD3030A8B4244D3030B8B4228D3030C8B420DD3FF22090212BA030C8B4202D3AA
:4008C0001212090265D0030B8B4219D300E0090AC30B8B4201D3CB03C01A5241830B8B4201D38B03C01A5241430B8B4201D34B03C01A5241030B8B4201D30B03C01A524132
:40090000C30A8B4201D3CB02C01A5241830A8B4201D38B02C01A5241430A8B4201D34B02C01A5241030A8B4201D30B02C01A5241CDD2C3098B4201D3CB01C01A5241830946
:400940008B4201D38B01C01A524143098B4201D34B01C01A524103098B4201D30B01C01A5241C3088B4201D3CB00C01A524183088B4201D38B00C01A524143088B4201D35D
:400980004B00C01A5241411A00D20146524110467047FFE701B5002000F006F802BDC0460029F7D076E770477047C046014B18687047C046400100200E4B70B500251E0090
:4009C0000D4CE41AA410A54204D0AB00F35898470135F8E704F002FD084B00251E00084CE41AA410A54204D0AB00F35898470135F8E770BDE8530000E8530000E853000035
:400A0000F053000003008218934202D019700133FAE77047F0B58BB014001D1E129906DA802424061B191D0014002D2300E000230B702023149E03229E43462E07D03300A6
:400A4000453B59424B411099013ACB18109309AB049308AB0393139B00920293109B220001932B0000F0F4FC0700472E02D1119BDB072DD5109BFB180793462E14D13B784D
:400A8000302B0CD1002200232000290002F040FC002804D10123109A9B1A139A1360139B079A1B68D3180793002200232000290002F02EFC3022002802D0079B099307E030
:400AC000099B0799994203D9591C09911A70F7E73800099B159ADB1B13600BB0F0BDF7B52B2307000C000270861C002901DA2D234C427B70092C1CDD6B46DD1D20000A2116
:400B000002F0F2FB013D3031297020000A2102F005FB04000928F1DC013D30342C706B4607333000AB4209D92B78013533700136F5E73023E4183370B01C7470C01BFEBD70
:400B4000F0B595B00C000A920B931A9D099001F01BFB036818000D9300F0ECFB0023129323680E900C930C99277E2B680722C90501D59B1800E0073393431A0008322A6039
:400B80001A685B68A264E3640122E56CA66C6B005B080F935242C04B30000F9904F004F9002819D10122BC4B524230000F9902F0BFFB002810D1002200233000290002F058
:400BC000ADFB002803D023002D2243331A70B34D472F0ED8B24D0CE032002B003000290004F0E2F8002800D19AE1AE4D472F00D8AD4D03230C9A236101339A432260002655
:400C000042E0672F00D193E1472F00D190E10C9A0021134312AA059211AA0392232223600691019308A9636852180292009332002B0004970998FFF7EDFE20233A00050043
:400C40009A43472A00D18EE11199652F00D996E1200001393A0050301191FFF740FF129A060083182361012A00DD85E12268D20700D581E1232308AA9B181B78002B03D058
:400C800023002D2243331A700B9B13AA009321000A9B099800F0A4F9431C02D1012040429BE12268530501D4236964E0652F00D8CCE0A06CE16C0022002302F029FB00280C
:400CC0002CD00123794A0A9909980B9DA847431CE4D0119B129A934208DB2368DB0705D4236800259B0700D50FE113E10B9D0E9B0D9A0A990998A8470025431CCED0129BC8
:400D0000013B9D42ECDA220001231A320A9909980B9EB047431CC1D00135F0E7119B002B2BDC0123614A0A9909980B9EB047431CB4D0119B002B05D1129B002B02D1236808
:400D4000DB07CDD50B9E0E9B0D9A0A990998B0470026431CA2D0119B5B429E420ADA220001231A320A9909980B9FB847431C95D00136F0E7129B2A00ACE0A36D129E9E4263
:400D800000DD1E00002E05DC00230C93F343DB170F9315E033002A000A9909980B9FB847431CF1D17AE7220001231A320A9909980B9FB847431C00D170E70C9B01330C935C
:400DC0000F9BA26D0C993340D31A9942EBDBAE18119B129A93420DDB2368DB070AD4129B119AED18AD1B9B1A9D4200DD1D00002D09DC11E00E9B0D9A0A9909980B9FB8477B
:400E0000431CECD14AE72B0032000A9909980B9EB047431C00D141E7EF43FB1700260C930AE0220001231A320A9909980B9FB847431C00D132E70136119A129B0C999B1A28
:400E40002A000A409B1A9E42EBDB49E7129B012B02DC01231A4245D001232A000A9909980B9FB847431C00D118E70E9B0D9A0A9909980B9FB847431C00D10FE7A06CE16C01
:400E80000022002302F044FA002801D000251AE0129B6A1C013B26E0FFFFEF7FA05100009C510000A8510000A4510000AC510000220001231A320A9909980B9FB847431C1D
:400EC00000D1EBE60135129B013B9D42F0DB2200330050320A9909980B9DA847431C00D0FEE6DBE62A000A9909980B9DA847431CEDD1D3E62200012319320A9909980B9EA8
:400F0000B047431C00D1C9E60135E368139A9B1A9D42EFDB139BE06898425EDA18005CE080236268DB00511C00D06AE6073202E0002A02D10122626069E60C9908A80B432F
:400F40000021069112A9059111A90391232109182360019300922B000497029132000998FFF758FD0500119BDA1C02DB626893421CDD023FFFB267E6013323617AE6662F8D
:400F800015D16368002909DD2161002B02D12268D2071ED50133591821611AE0002B03D101222168114213D09A1C11E06727119B129A934206DB22682361D20709D501335D
:400FC000236106E00121002B01DC4918C91A8A182261119B0026A3654CE615B0F0BDC046F7B5170001938A680B6900900C00934200DA130022003B6043321278002A01D09E
:4010000001333B6023689B0602D53B6802333B60062523681D401ED0230043331B785A1E9341226892061CD53020E1184331087021005A1C45310978A21843320233117037
:401040000FE022000123193201990098089EB047431C0ED00135E3683A689B1A9D42F0DBDAE72200019943320098089DA847431C02D10120404220E006232068E1683A68D3
:4010800003400025042B03D18D1AEB43DB171D40A3682269934201DD9B1AED180027BD420AD0220001231A3201990098089EB047431CDED00137F2E70020FEBDF0B58BB064
:4010C00006920A0043320793059004920A7E0C00109B6E2A00D1ABE011D8632A22D009D8002A00D1B5E0582A00D0C5E045310A70814A4FE0642A1DD0692A1BD0BCE0732AF5
:4011000000D1AAE009D86F2A29D0702A00D0B3E0202209680A43226037E0752A1FD0782A33D0A9E00E001A684236111D196013683370A4E021681A68080606D4490604D523
:40114000111D19600023D55E02E0111D19601568002D3BDA2D23049A6D42137036E021681A68080606D4490604D51568111D1960ADB202E0111D196015685F4B227E039370
:4011800008276F2A1DD00A271BE022007821453211705A4A19680392081D226818600D68100602D4500600D5ADB2D30702D520231A4322601027002D03D1202322689A431A
:4011C00022602300002243331A7002E00A274A4B03936368A360002B09DB0422216891432160002D05D1049E002B11D07BE0002D79D0049E28003900FFF7D2FB039B013EE4
:401200005B5C280033703900FFF744FB051EF1D1082F09D12368DB0706D563682269934202DC3023013E3370049B9B1B23612BE009681A68080607D4490605D5111D1960B2
:401240001368A28A1A8004E0111D1960136862691A600023049E236116E01A68111D1960166800216268300000F09CFF002801D0801B6060636803E02600423632700123F0
:4012800023610023049A1370079B09AA00932100069B0598FFF7A4FE431C02D10120404227E02369320006990598079DA847431CF4D0236800259B070FD4099BE068984200
:4012C00017DA180015E022000123193206990598079EB047431CE1D00135E368099A9B1A9D42F0DBE9E72600039B42361B7833708EE70BB0F0BDC046AE510000BF510000C0
:401300000FB40B4B13B51C68002C05D0A369002B02D1200000F0A4FE05AB049AA1682000019301F01FFB16BC08BC04B01847C046400100200023C25C0133002AFBD1581E84
:401340007047F0B503690C6989B00700059100269C4279DC0B00013C1433A50003935B1904930300143302935D19049B28681B68591C0193FFF78EFA0190B04233D0039B7A
:4013800002989C460696634604CB9C46019B91B25943120C5A4389190B0CD3180793069A1E0C038889B29B1802685B1A110C6A46928B8A1A1914521811149BB21204134322
:4013C00008C0049B06916345DDD22B68002B0AD1029B043DAB4201D33C6104E02B68002BFAD1013CF4E70599380001F0FFF8002829DB0020019B02990133039A019340CA8E
:401400000B881818B3B2C31A0868360C000C801B1D14451928149BB22D042B4308C1049B9342ECD2029AA300D3181A68002A0AD1029A043B9A4201D33C6104E01A68002A33
:40144000FAD1013CF4E7019E300009B0F0BD0000F0B516001F00446A9DB00490259D06960797002C08D1102000F092FE049B5862446084600460C460049B5B6A19680029C3
:401480000BD05A68012393404A608B60049800F0D5FE0022049B5B6A1A60079B002B05DA01232B607B005B08079301E000232B60079CC84B220019931A409A4219D1C64B8D
:4014C000249A1360069AC54B002A02D1240300D1C34B269A1800002A01D100F07DFDD978DA1C002900D00532269918000A6000F073FD069E079F002200233000390001F0C9
:4015000007FF051E0ED00123249A1360B54B269A1800002A01D100F05FFDB34A26990A6000F05AFD1AAB01931BAB009332003B00049801F0E1F8630005905B0D09D03A03C7
:40154000AA4C120B1443AA4A300021009E1817951AE01A9B1B9A9E18A64BF318202B08DDA54A0698B218D0404022D31A9C40204303E020220698D31A984003F0ADFC0123D7
:401580009E4C013E0919179300229D4B03F0B8F89C4A9D4B02F03AFE9C4A9D4B01F0E6FE040030000D0003F055FC9A4A9A4B02F02DFE02000B002000290001F0D7FE040063
:4015C0000D0003F011FC0022039000232000290001F0A4FE00280DD0039803F03BFC02000B002000290001F093FE43424341039AD31A039301231693039B162B11D88749FA
:40160000DB00C91808684968069A079B01F09AFE002805D0039B013B03930023169300E016901A9B9E1B00230B93013E0C9604D50C9B5B420B9300230C93039B002B08DB0A
:40164000039A0C9B944663440C9300231192089307E00B9B039A9B1A0B935342089300231193229B0125092B25D8052B02DD0025043B2293229B981E032824D801F044FD29
:40168000060E0204012302E0012308E000231093239B002B20DD1F000A9321E00023239A1093039B9F187B1C0A930123FA18002A16DD130014E0012700237F4222931095C9
:4016C0000A97123305E0012701237F4210930A9711330022239203E001273B000A972397049A546A00226260043211001431994204D86168520001316160F6E7616804983F
:4017000000F064FD049B20605B6A1B680D930A9B0E2B00D981E1002D00D17EE1069B079C14931594039B002B31DD0F223B491340DB00CB185C681B680E930F94039B02245B
:401740001D11EB060AD514981599354B15401A6A5B6A02F037F9069007910134304E002D0ED001231D4208D00E980F99E4183268736802F04BFD0E900F916D100836EEE7C3
:401780000E9A0F9B0698079902F01CF94CE0039B02245D42002D49D0149815990F231F4A2B40DB00D3181A685B6802F02FFD0023069007911A4E2D11002D33D00122154293
:4017C00005D0A4183268736802F020FD01236D100836F1E70000F07F0F270000D9510000D0510000AC510000AD5100000000F03F01FCFFFF3204000012040000000010FEAE
:401800000000F83F61436F63A787D23FB3C8608B288AC63FFB799F501344D33F4852000020530000002B01D006900791169B002B1DD0069D079E0022C74B2800310001F00D
:401840006DFD002813D00A9B002B10D0002F00DCDFE0039B3100013B0E930022BF4B280002F0D4FC0134069007913E0002E0039B0A9E0E93200003F0EDFA069A079B02F01F
:40188000C5FC0022B64B01F071FDB64A12901391129C139D9446139B634418931D00002E1CD1069807990022AF4B02F029FF2200189B0690079101F045FD002800D054E257
:4018C000AA481399844661440B0006980799220001F024FD002800D03DE29AE0109A731EA349DB00002A49D0CB181A685B680020A04902F067F82B00220002F001FF129025
:4019000013910D9D0698079903F06EFA040003F0A1FA02000B000698079902F0F1FE01356B1E30341C70129A139B0690079101F0F5FC002800D02EE3069A079B00208649AF
:4019400002F0DEFE129A139B01F0E8FC002800D0C7E00D9BEB1AB3425BDA1298139900227E4B02F053FC002212901391069807997A4B02F04BFC06900791C3E7C9182200F3
:40198000086849682B0002F041FC0D9C12901391A5190698079903F027FA060003F05AFA02000B000698079902F0AAFE303626700134069007910022A54222D16D4B1298BE
:4019C000139901F0D3FC02000B000698079901F0B9FC002800D084E0129A139B0020654902F08EFE02000B000698079901F096FC00280ED06B1E1A78302A00D0CBE21D00A5
:401A0000F8E706980799554B02F000FC06900791BFE7149B159C069307941B9B002B00DA81E0039A0E2A00DD7DE0D300504AD3185C681B6808930994239B002B15DA0A9B14
:401A4000002B12DC00D088E1089809990022464B02F0DCFB069A079B01F07EFC0A9B08931E00002800D07BE182E10D9D069E079F089A099B3000390001F0A4FF03F0B4F9BD
:401A8000040003F0E7F9089A099B02F0BFFB02000B003000390002F033FE220001356B1E30321A700D9B0A9AEB1A9A422ED102000B0001F05BFC06000F0002000B000898B4
:401AC000099901F02BFC00280FD10898099932003B0001F01DFC002800D15EE2E30704D45BE20E9B039300E01D006B1E1A78392A08D10D9A9A42F7D1039A0D99013203924A
:401B000030220A701A7801321A7046E20022134B02F07CFB0022002306000F0001F0F8FB0028A5D039E2109A002A44D0229A012A0BDC179A002A02D00F4A9B1802E03623D9
:401B40001A9A9B1A089D0B9C29E00A9B5D1E089BAB4213DB5D1B18E00000F03F0000244000001C400000C0FC000014400000C07C485200000000E03F33040000089B08952E
:401B8000EA1A0025119B9B1811930A9B002B04DA0B9B0A9A9C1A002301E00B9C0A9B0B9A0121D2180B920C9A0498D3180C9300F0E5FB060002E0089D0B9C109E002C0ED025
:401BC0000C9B002B0BDD0C9A2300944200DD13000B9AE41AD21A0B920C9AD31A0C93089B002B20DD109B002B17D0002D11D031002A00049800F054FC059A0100060004982F
:401C000000F0C5FB05990E90049800F017FB0E9B0593089B5A1B06D000E0089A0599049800F03EFC05900121049800F0A7FB119B0890002B00D1C0E11A000100049800F098
:401C40002FFC229B0890012B17DC0025069BAB420ED1079B1B03AB420AD1199B079A134206D00B9B013501330B930C9B01330C93119B0120002B0DD000E00025089B089AE4
:401C80001B690E9303339B00D318586800F02CFB2023181A0C9BC0181F23184009D001331B1A042B02DD1C23181A03E0042B08D018001C300B9B24181B180B930C9B1B1842
:401CC0000C930B9B002B05DD1A000599049800F03BFC05900C9B002B05DD1A000899049800F032FC0890169B002B1DD00899059800F07CFC002817DA039B0A22013B03939D
:401D000005990023049800F0B2FA109B0590002B00D159E1310000230A22049800F0A7FA0600002F37DC33E00A9B0A9F002B2ADC229B022B27DD002F12D108993B000522AA
:401D4000049800F094FA08900100059800F04EFC00280DDC04E0089602E000231E000893239B0D9DDB4303930AE00E9B089603930D9B0D9A5D1C31231370039B013303939E
:401D80000A960026F3E0109B002B04D10D9DB5E0229B022BCFDC002C05DD31002200049800F0D2FB06000A96002D12D07168049800F00CFA3100040033690C319A1C9200DB
:401DC0000C3000F0FAF901222100049800F0BCFB0A900D9B7D1E0B935B190E9308990598FFF7AFFA310010900400059800F0FEFB0A9A05000899049800F013FC01230C93CD
:401E0000C36830340700002B04D10100059800F0EDFB0C903900049800F010FA0C9B229A134308D1069A0133134204D1392C2AD0002D1CDC1DE0002D06DB229B1D431BD103
:401E40000123069A134217D10C9B002B11DD05990122049800F078FB0899059000F0C6FB002802DC05D1E30703D5392C0BD0109C31340B9B5D1C0FE00B9B5F1C0C9B002B0A
:401E80000CDD392C05D10B9B0B9A5D1C3923137057E03D000B9B01341C7068E00B9B0E9A3D001C7093423CD000230A220599049800F0DDF90A9B05909E4208D131000023AA
:401EC0000A22049800F0D3F906000A900DE0310000230A22049800F0CAF9002306000A220A99049800F0C3F90A900B9776E700230A220599049800F0BAF90590089905982A
:401F0000FFF71FFA0D9B3030287001350400EB1ABB42ECDB3D1E00DC01250A9600260D9B5D1905990122049800F00EFB0899059000F05CFB002804DC13D1E30701D410E040
:401F40001D006B1E1A78392A08D10D9A9A42F7D1039B013303933123137008E001321A7005E06B1E1A78302A01D11D00F9E70899049800F063F90A9B002B0ED0002E05D05B
:401F80009E4203D03100049800F058F90A99049800F054F901E00E9B03930498059900F04DF900232B70039B249A01331360269B0D98002B10D01D600EE0229B012B00DCF2
:401FC00043E6119D012065E6002F00DDDEE6229B022B00DCDAE6AEE61DB0F0BD10B5024900F0B0F810BDC0464D2F0000002310B5040003604360836081814366C28103611C
:4020000043618361190008225C30FEF7FBFC054B24626362044BA362044BE362044B236310BDC046C12B0000E92B0000212C00004D2C000070B568254B1E5D430E0029007A
:40204000743100F007FC041E08D000212A00016046600C30A0606832FEF7D4FC200070BD836913B50400002B28D18364C3640365134B144A1B6882620193984201D10123BB
:402080008361200000F020F86060200000F01CF8A060200000F018F80022E06004216068FFF7A4FF01220921A068FFF79FFF02221221E068FFF79AFF0123A36113BDC04613
:4020C00098510000DD1F0000F8B51D4B06001D68AB69002B02D12800FFF7C2FF4835AC686B68013B05D40C22A75E002F10D06834F7E72B68002B01D02D68F0E704213000E5
:40210000FFF798FF28600028F6D10C23336016E0012320005B42E3810233A38167662760A760676027616761A7615C3008223900FEF768FC20006763A763A764E764F8BD84
:4021400098510000F7B504000700002601914834002C16D06368A5680093009B013B00930DD4AB89012B08D90E22AB5E013304D029003800019B984706436835EDE724681F
:40218000E6E73000FEBD0000004870474401002010B5034B0100186800F05CFB10BDC04640010020C9B28218904204D003788B4202D00130F8E700207047002310B59A4274
:4021C00003D0CC5CC4540133F9E710BD70B5466A04000D00002E07D11020FFF7D9FF6062466086600660C660666AF368002B09D0636AAA00DB689B18186800280ED002689B
:402200001A6017E021220421200000F0C9FA636AF060DB68002BEBD100200EE001210E00AE40721D9200200000F0BAFA0028F3D04560866000230361C36070BD70B5456A79
:4022400006000C00002D07D11020FFF7A1FF7062456085600560C560002C07D0726A6368D2689B00D3181A6822601C6070BDF7B5070008000C000D691E0000210192143031
:40228000019A0388013153439B190668360C56431A0C9446B4446246160C120494469BB2634408C08D42EBDC002E1BD0A3689D4212DB63683800591CFFF788FF210023699D
:4022C00001909A1C92000C310C30FFF776FF21003800FFF7B3FF019C2B1D9B00E31801355E6025612000FEBD00220300010C914201D103041032190E01D108321B02190FB8
:4023000001D104321B01990F01D102329B001000002B03DB20205B0000D5501C70470722036810B501001A400CD001240020234223D10222134203D0E34020000B601CE060
:402340009B0818E098B2002801D110221B0CD8B2002801D108321B0A180701D104321B09980701D102329B08D80704D45B082020002B02D0013210000B6010BD10B50C000C
:402380000121FFF723FF01234461036110BDF0B50B691400126989B00D00934201DA25000C002F692669AA68BB1969680193934200DD0131FFF70AFF0200BB1914329B000E
:4023C000D3189C46002113000290634501D202C3FBE71435BF00EB191434B6000593A31903950793079B9C4251D2208800281ED015000026039F08CF069504936B461B8AFB
:40240000434319002B88CB1804999B19090C41432E68360C89191E0C89190E0C9BB209040B4308C5059BBB42E5D8069B5E6023681D0C1FD0002110001368039F04913E88A3
:4024400001686E43090C7118049E9BB289190E043343036008CF86881B0C6B43090C9B195B18190C0491059906900430B942E6D806994B6004340432B4E704235B429C4460
:4024800063461B68002B05D1019B013B0193019B002BF2DC029B019A18001A6109B0F0BD0323F7B5134005000E001400002B08D02349013B9A00525800233100FFF7D7FE63
:4024C0000600A310019338D06C6A002C07D11020FFF75EFE6862446084600460C4606F6ABC68002C10D117492800FFF747FF0023B8600400036007E0019B5B1001931CD073
:402500002068002810D004000122019B1342F3D0310022002800FFF73AFF070031002800FFF78CFE3E00E7E7220021002800FFF72EFF002320600360E5E73000FEBDC04649
:402540001053000071020000F0B50C0017002369551185B0EB180193013300934968A3680290009A934202DA01315B00F9E70298FFF72CFE00230200060019001432AB4201
:4025800003DA980011500133F9E7EB43DB171D402300AD0055192269143392009A1894461F22174014D00132D21B0392002219682800B9400A4304C504CB0399CA409C4525
:4025C000F5D84260002A07D0019B0233009303E004CB04C59C45FBD8009B0298013B33612100FFF72BFE300005B0F0BD03690A6910B59B1A0400181E12D19300143414316B
:40260000E218C918043A043913680868834204D083429B410120184302E09442F2D3002010BDF0B50C0085B00700110020001500FFF7DCFF061E07D101003800FFF7C6FD47
:4026400001234661036155E000230193984204DA23002C001D000123019361683800FFF7B5FD019B26692F00C3601434B300E318020002932B69002514379B00FB18039368
:40268000143208CC69469C4608CF0432009363468B808B885D19009B9BB2EB1A65460193009B2D0C190C019B691A1D14131F9C466B4649199B880D1409040B4361460B6045
:4026C000039BBB42DDD8029913008C420BD202CC8BB25B191D14090C49190D149BB209040B4308C2EFE7043B1A68002A01D1013EF9E7066105B0F0BDF7B51D000121089F6A
:402700001400FFF763FD2B036D0006001B0B6D0D02D08022520313430193002C18D068460094FFF7FCFD009C002809D0019B20211A00091A8A40C34022437261019300E0C6
:402740007461019CB461631E9C410134346107E001A8FFF7E4FD0124019B346173612030002D06D00B4BED1835232D183D60181A0BE0094BC018094B3860E3189B00F3185B
:402780005869FFF7B1FD6401201A099B18603000FEBDC046CDFBFFFFCEFBFFFFFFFFFF3F4A4370B51100140000F054F8051E03D022000021FEF726F9280070BD70B5050060
:4027C000002944D00C1F2368002B00DAE418280000F060FC1E4A13681100002B02D16360146031E0A3420DD92268A018834203D118685B688218226063600C6024E0A2421B
:4028000003D813005A68002AF9D11E689819A0420BD12168711858181960824214D110685268411819605A600EE0A04202D90C232B6009E021686018824203D11068526884
:402840004118216062605C60280000F024FC70BDC8010020032370B5CD1C9D43083506000C2D01D20C2501E0002D01DBA94202D90C23336048E0300000F00CFC234B1C686A
:402880001A002100002913D00B685B1B0DD40B2B02D90B60CC181EE08C4202D1636813601AE04B6863600C0016E00C004968E9E7174C2368002B03D1300000F06FF92060D6
:4028C0002900300000F06AF9431C18D00323C41C9C43A0420DD12560300000F0DCFB200007220B30231D9043C31A0ED05A42E2500BE0211A300000F051F9431CEBD10C23CA
:402900003000336000F0C7FB002070BDC8010020C4010020936810B5013B9360002B05DA9469A34208DBCBB20A2B05D01368581C10601970C8B201E000F08EF910BDF8B58E
:4029400006000F001400D518AC4208D021783A003000FFF7DFFF0134431CF5D100E00020F8BD0000F0B59FB006000F0002920593002804D08369002B01D1FFF771FB7F4B4F
:402980009F4201D1776808E07D4B9F4201D1B76803E07C4B9F4200D1F768BB891B070AD53B69002B07D0002306AD6B6120336B761033AB763DE03900300000F0B9F90028D3
:4029C000F1D001204042D6E0059A111D12680591002A00DA7FE00992013423782E2B00D18DE0217803226848FFF7DCFB002807D0654B2A68C01A4023834013432B600134E9
:402A00002178631C0622614802932976FFF7CAFB002800D19DE05E4B002B00D090E00722059B07339343083305936B69039A9B186B61029C2378002B04D1029BE31A04932E
:402A400012D003E0252BF8D00134F3E7049B029A39003000FFF773FF431C00D186E06A69049B944663446B612378002B7ED00122002352426A6002A95432521801342B60F6
:402A8000EB60AB601370AB65217805224148FFF789FB002808D03F4B2A68C01A0123834013432B600134EFE72B68DA0604D55322202102A8121811701A0704D553222B218F
:402AC00002A81218117022782A2A00D17CE7099B00200A2105E05242EA60022213432B607AE72278303A092A04D84B4301349B180120F6E7002800D16FE709936DE76378A6
:402B00002A2B0AD1059B02341A1D1B680592002B01DA01235B42079363E700230A201A0001346B6021783039092904D84243013452180123F6E7002B00D152E7079250E7F2
:402B400005AB00933A00144B29003000FDF7F8FF07E005AB00933A000F4B29003000FEF7ADFA0390039B013300D05EE7BB895B0600D526E70B981FB0F0BDC046E05100002B
:402B800000520000205200004E53000052530000410B0000485300003F290000002370B5064C050008002360FDF788FB431C03D12368002B00D02B6070BDC046CC010020B7
:402BC00070B50C000E25495F00F066FA002803DB636D1B18636503E0A289024B1340A38170BDC046FFEFFFFFF8B51F008B8905000C001600DB0505D50E23C95E0022022357
:402C000000F0D0F9A289054B28001340A38132000E23E15E3B0000F077F8F8BDFFEFFFFF70B50C000E25495F00F0BCF9A389421C03D1054A1340A38104E0802252011343E0
:402C4000A381606570BDC046FFEFFFFF10B50E23C95E00F0E3F810BDF8B505000F001400002804D08369002B01D1FFF7F9F9234B9C4201D16C6808E0214B9C4201D1AC68EB
:402C800003E0204B9C4200D1EC68A369A360A3891B070AD52369002B07D023682269FEB2981A636998420FDB08E02100280000F03FF80028F1D0012040421DE021002800C7
:402CC00000F044F90028F6D1A3680130013BA36023685A1C22601F706369984205D0A3893000DB0708D50A2E06D12100280000F02DF90028DFD13000F8BDC046E051000033
:402D0000005200002052000070B50500080011000022064C22601A00FDF75AFA431C03D12368002B00D02B6070BDC046CC010020364B70B51D6806000C00002D05D0AB697D
:402D4000002B02D12800FFF78BF9314B9C4201D16C6808E02F4B9C4201D1AC6803E02E4B9C4200D1EC680C22A35E9AB2110723D4D10607D409220120326037321343A38131
:402D8000404242E0530713D5616B002908D023004433994202D03000FFF710FD002363632422A3899343A38100236360236923600822A3891343A3812369002B0BD1A02376
:402DC0008022A1899B0092000B40934203D02100300000F021F90123A289134005D00023A36063695B42A36103E0920700D46369A36000202369834207D10C22A35E1A06CB
:402E000003D540221343A381013870BD40010020E05100000052000020520000002370B5064C05000800236002F0ACF8431C03D12368002B00D02B6070BDC046CC010020FE
:402E4000F7B58A8905000C0013075AD44B68002B02DC0B6C002B19DDE76A002F16D000232E682B6080235B011A4001D0606D14E00123216A2800B847431C0ED12B68002B7F
:402E80000BD01D2B01D0162B02D12E6000205AE04022A3891343A38155E0A3895B0706D56368C01A636B002B01D0236CC01A00230200216A2800E76AB847A389421C06D11B
:402EC00029681D293AD8204ACA40D20736D50022626022692260DB0405D5431C02D12B68002B00D16065616B2E600029CED023004433994202D02800FFF760FC002060639C
:402F000021E00F69002FC1D00B680F60DB1B01930023920700D14B69A36003E0019B3F181B1A0193019B002BB0DD019B3A00216A2800A66AB0470028F0DCA3894022012082
:402F40001343A3814042FEBD010040200B6970B505000C00002B01D100201CE0002804D08369002B01D1FFF77BF80B4B9C4201D16C6808E0094B9C4201D1AC6803E0084B18
:402F80009C4200D1EC680C22A35E002BE4D021002800FFF755FF70BDE0510000005200002052000070B50500080011000022064C22601A0001F0FEFF431C03D12368002B21
:402FC00000D02B6070BDC046CC01002070B50E001D000E23C95E90B01400002906DA00232B60B3891B060FD540230FE001AA00F067F80028F3DBF023029A1B021340054AB2
:403000009B185A4253412B608023DB000020236010B070BD00E0FFFFF7B502268B8905000C00334210D101AB6A46FFF7CFFF009907002800FFF70EFC00280CD10C22A35ECB
:403040009A0523D43343A3812300473323602361012363611AE080220D4BAB62A38920601343A381009B20616361019B002B0AD00E23E15E280000F035F8002803D0012219
:40308000A3891343A381A3891F43A781F7BDC046DD1F00007047704770B50500080011000022064C22601A0001F08CFF431C03D12368002B00D02B6070BDC046CC0100205D
:4030C000002370B5064C050008001100236001F061FF431C03D12368002B00D02B6070BDCC010020002370B5064C05000800236001F058FF431C03D12368002B00D02B6030
:4031000070BDC046CC01002002B4714649084900095C49008E4402BC7047C04603460B437FD4002243088B4274D303098B425FD3030A8B4244D3030B8B4228D3030C8B4254
:403140000DD3FF22090212BA030C8B4202D31212090265D0030B8B4219D300E0090AC30B8B4201D3CB03C01A5241830B8B4201D38B03C01A5241430B8B4201D34B03C01ABD
:403180005241030B8B4201D30B03C01A5241C30A8B4201D3CB02C01A5241830A8B4201D38B02C01A5241430A8B4201D34B02C01A5241030A8B4201D30B02C01A5241CDD213
:4031C000C3098B4201D3CB01C01A524183098B4201D38B01C01A524143098B4201D34B01C01A524103098B4201D30B01C01A5241C3088B4201D3CB00C01A524183088B423B
:4032000001D38B00C01A524143088B4201D34B00C01A5241411A00D201465241104670475DE0CA0F00D04942031000D34042534000229C4603098B422DD3030A8B4212D302
:40324000FC22890112BA030A8B420CD3890192118B4208D3890192118B4204D389013AD0921100E08909C3098B4201D3CB01C01A524183098B4201D38B01C01A52414309BA
:403280008B4201D34B01C01A524103098B4201D30B01C01A5241C3088B4201D3CB00C01A524183088B4201D38B00C01A5241D9D243088B4201D34B00C01A5241411A00D24A
:4032C0000146634652415B10104601D34042002B00D54942704763465B1000D3404201B50020FDF761FB02BD0029F8D016E770478446101C62468C46191C634600E0C046CB
:403300001FB500F019FF002801D40021C8421FBD10B500F06DFE4042013010BD10B500F00BFF002801DB002010BD012010BDC04610B500F001FF002801DD002010BD0120A0
:4033400010BDC04610B500F093FE002801DC002010BD012010BDC04610B500F089FE002801DA002010BD012010BDC046F8B556465F464D464446F0B40F00FD0FAA46090368
:403380007C002E005F00450F490A7F0D2943C5001803BC46400A570F640DDB0F3843D2009A4500D1AAE06646A61B002E00DCFFE06346002B39D10300134300D0D9E06B0769
:4033C00009D00F232B40042B05D02B1DAB42AD416D4249191D000B0200D482E0CA4B01349C4200D1FEE00A005646C84BED081A405007640552020543120B640D00211203C0
:403400000B0D1B056405120B1A436308C04CF60714401C43640064083443280021003CBC90469946A246AB46F8BDB74B9C42C6D080231B041843382E00DDEBE01F2E00DDB4
:403440001EE120239B1B9C4603006746BB40984613004746F3403B436746BA40571EBA4113430200F240EB1A9D42B6411D008A1A7642911B0B0231D54A02560A002E00D139
:40348000B4E0300001F060FD0300083B1F2B00DDB5E020222900D21AD1409E400A009D4032439C4200DDB1E01C1B631C1F2B00DDD5E0202114002800C91A8C40D8408D4067
:4034C0000443DA40681E854111002543002476E74146314300D134E2310045466B0700D06FE756464807ED08C9080543864B9C4235D00A036405120B640D7FE76346E31A32
:403500009B46002B00DC8BE06746002F3CD07E4FBC4200D153E780273F0438435B46382B00DCF7E00243501E82410020D2B253194218AB4289411D00494289180B02CDD5CF
:40354000714B01349C4200D13DE101206F4A6B080A4028401843D507054351082FE72B000B4300D1CBE180231B030B431A03120B44E7013E002E6DD1AE1AB5429B41091ACD
:403580005B42C91A350075E70700174300D116E701235B429C46E3445B46002B00D0E0E0AA18AA429B4109185B4259181500C5E7002E75D1661C7605760D012E00DCF3E059
:4035C000AE1AB0464545BF410E1A7F42F61B370200D48FE0551BAA42B641411A76428E1B9A464BE756460022002507E7280001F0ABFC20300300083B1F2B00DC49E72A0045
:403600002838824000259C4200DC4DE73F49E41A1140D4E60243501E8241D3B2002222E7002B00D0F3E0631C9C465B055B0D012B00DC9FE0344B9C4500D1C3E0AA18091869
:40364000AA42804140424118CD075208154349086446B4E62C4B9C4200D0ECE6AFE611001F3CE1400C00202B00D17FE04021CB1A9A4015436A1E95410021254300242DE770
:4036800033000700203BDF403B00202E70D04027BE1BB0400243501E824113430022E2E6002C4FD0184CA44500D1ABE08024240476422143382E00DDDFE01F2E00DD43E17B
:4036C0002027BC1BA1460C004F46BC40A0462C004746F4403C434F46BD406F1EBD41F1402C43151BAA429241411A5242891A64469A46BFE641464546314300D0BEE6002649
:4037000000240025F2E6C046FF070000FFFF7FFFFFFF0F801F2B59DC2027FF1ABC46070063469F405B46B9461700DF40B8464F4643461F4363469A40531E9A415B463A43A2
:40374000D840F4E60C002C435CD0F643002E55D1551BAA42A441411A6442091B9A46644688E6964FBC4200D0D8E628E6002280E700208FE70B002B43002C00D0C2E0002BE5
:4037800000D101E10300134300D118E6AB18AB42B6410918764271180A0200D409E1884A1D00114064460AE6002C5BD10E002E4300D08AE00100114300D1C2E00100150092
:4037C0009A46FCE56446002100258FE620235B429C46DC4463460700DF405B46BC46202B00D1ACE040235F46DB1B98400243501E8241634613431A00002098E66F4CA44500
:4038000000D057E70100150064469A46D7E5002C39D10C002C436ED0DB43002B1AD0674CA44568D0382B00DDA4E01F2B00DDAEE020240F00E41AA740B9462F00DF40B8462C
:40384000A3464F46444627435C46A5406C1EA541D9403D43AD1895429B4109185B42591864466BE60C002C4315D1010011437BD0010015009A46514CA1E50D43691E8D41E5
:403880000021ECB22DE74D4CA44534D0802424045B422143C6E7040014434ED0ED084C072C438025C9082D03294208D0C6082E4205D1D208410711430C009A463100620F04
:4038C000C900E50011433D4C79E50600164300D175E5AE1AB0464545BF410E1A7F42F61B370200D4F4E5551BAA42B641411A7642891B9A4663E50100150064465FE50022D5
:4039000000257BE5002B3BD00300134315D0ED084B072B438025C9082D03294207D0C4082C4204D141070B002100D2081343C9005A0F1143DD00214C41E5204C3FE5002098
:4039400054E700260025D1E534000F00203CE7403C00202E2BD04027BE1BB1400D43691E8D4100212C43BCE6802100260903134C0025BBE50D43691E8D410021EDB269E70C
:40398000010015000D4C1AE50100150017E51C000F00203CE7403C00202B0CD04027FB1A99400D43691E8D410021254352E70021D4E71D0092E50021F3E7C046FF07000043
:4039C000FFFF7FFFF0B556464D4644465F46F0B41D000E034C00CB0F87B0070092468146360B640D98466AD06D4B9C4235D08022430F12041343F6001E43C3009946694B01
:403A000000279C460023644402932B0368001B0BED0F51469B46400D009500D178E0604B98426CD05B46DA004B0F802109040B4313439B465346D9005A4B9C460023604459
:403A40004246201A6A40924601901F430F2F00D9B0E05548BF00C0598746374300D088E0002399460233082700260293CDE74346B34649460093029B009A9246022B00D0EF
:403A8000BFE1002153460122002689461A40444B002136030C0D2405360B2643434C1B0526401E437600D207760816434846310007B03CBC90469946A246AB46F0BD3300ED
:403AC00003434FD0002E00D1BCE1300001F03CFA03000B3B1C2B00DDADE11D220100D31A08393A008F408E40DA40B9461643304B00279C46002360444442029385E7534651
:403B00005A4613432CD1002300219B46023397E70B4320D05B46002B00D19EE1584601F013FA03000B3B1C2B00DD8FE102005946083A91408B461D21CB1A5146D9400B0084
:403B400059460B4351469B469140194B9C4660444042002374E7002300219B4601336FE703236DE70023994601330427002602934BE703230C27029347E70122D51A382D1B
:403B800000DCB0E153461A4000210023002689467EE700238026994600223603004B77E7FF07000001FCFFFF5C530000FFFF0F80F30300005E4500D972E100D16DE1019B9E
:403BC0004D46013B01930023340002935B461E020B0E1E430B020393330C994633041B0C494620000093FCF755FE009B370043430600494620009846FCF7D2FE2C0C0904A1
:403C00000C43A04509D9E419731EA74200D95CE1A04500D859E1023EE4194346E41A49462000FCF737FE0300009A80465343494620009B46FCF7B4FE2A040904120C0A437B
:403C400093450DD94346D219013B974200D93AE1934500D837E102235B429C46D219E0445B46D21A4346360433439B460399180C0B0C1D00059309045B46090C0C001B046D
:403C80001B0C4443049159436B4368431B190D0CEB189C4203D980246402A44660441C0C09041B04090C20185D18824200D2DEE000D1D7E0161A029B9C465D1BAC459B4144
:403CC0005B42F61AB74200D106E149463000FCF7E1FD009B04004343494630009846FCF75FFE2E0C09040E43B04509D9F619631EB74200D9F3E0B04500D8F0E0023CF61936
:403D00004346F31A494618000293FCF7C3FD009B06004343494602989846FCF741FE2D0409042D0C0D43A84509D9ED19731EAF4200D9D6E0A84500D8D3E0023EED1924040B
:403D4000210043463143049E059A3000ED1A0B040C0C1B0C58436643534354439A19030C9B189E4203D980225202944664441A0C00041B04000C14191B18A54250D34DD069
:403D800001231943964A019B94466344002B00DCF3E64A0709D00F220A40042A05D00A1D8A42894149428B4411005A46D20108D55A468C4B1A4093468022D2009446019BF2
:403DC0006344894A934200DD5BE65A46C908500708435602514601225B058146360B5B0D0A4055E680231B031E4211D05A461A420ED15E461E433603360B2A0089467B4BC1
:403E000046E6032B00D1E1E0012BBBD11A40BBE61E433603360B4246744B39E6002BB1D07D194A1EAF4252D91100A542A8D1039A9A42A5D1A6E703003E00283B9E4000234A
:403E4000994654E601F080F8203041E603005246283B9A400021934677E6504601F074F820305EE6029B0026AB4200D323E7039E0299B44661448846B045B6415B46764218
:403E8000F619B218013B0291974213D290424FD800D18EE0161A9B460DE7894500D28EE674084B46F60735005B081D434B46DB0702938BE69742EDD10399029CA142E5D95E
:403EC0003E1A9B46F7E69846CAE61E00A5E6AC423ED874D0110053E70121494252E71C000EE71E002BE71F2D3CDC20230A0058465B1B9840EA4099400243481E81415E460A
:403F00001143EE404B0709D00F230B40042B05D00B00191D99429B415B42F61833023CD55346012200211A40002601238946AFE502235B429C46039CE344A446029B6344EE
:403F40009846A045B6417642F6190293B218B1E603988A1E41008142B6417642F619AD19039161E71F225242D31A5A46DA401300202D29D040225846551BA8400143481E4C
:403F8000814107200B4318400026002809D00F2200261A401900042ABBD10B0070077602360BDB0803439946012253461A4000236EE502998D42BBD89B4600267BE60398F8
:403FC0009842C5D3110032E70020D7E780265B4636031E433603360B009A8946034B57E5FF030000FFFFFFFEFE070000FF070000F0B55F4656464D464446F0B41F035C00CC
:40400000DB0F9A46194B0E034D00C90F8046360B6D0D8B4691463F0B640D9D4219D0134B9C421BD00123A54206D018003CBC90469946A246AB46F0BDBE42F6D1C845F4D184
:40404000D34510D0002DF0D1304303005A1E9341EBE7310001230143E7D1E0E73A430123002AE2D1DEE70023DFE7C046FF070000F0B55F46444656464D46F0B41F033C0B66
:404080002C4F0E034D00A3465C008446360B6D0DC90F9046640DDB0FBD422BD0254FBC422ED0002D0ED130430700814678427841002C17D15F463A4314D14B460020002B33
:4040C0000AD006E0002C02D15846024301D099421AD00123484218433CBC90469946A246AB46F0BD0028F2D058425841012240421043F1E737000743D0D002204042EBE7C8
:404100005F461743CDD0F8E7A542E2DC05DB5E45DFD808D000205E45DED248424841012340421843D8E7C445D3D80020C445F4D3D2E7C046FF070000F0B55F464D46444637
:404140005646F0B41C03240BA4462F4C0F034D005E00C90F80463F0B6D0D8B469146760DDB0FA54220D0284CA64222D0002D12D1384344424441002E20D0002C0DD05C4298
:40418000634101245B421C4320003CBC90469946A246AB46F0BD002E17D05B4519D05B465C4201231C43EFE7390002240143EBD1D9E7614602241143E6D1D7E761460A4308
:4041C000DBD100240028DFD0E9E761460A43E4D1E5E7B54203DD01225C421443D4E7B542CDDB6745DBD809D000246745CCD259464C426141012449420C43C5E7C845CED8B7
:404200000024C845F3D3BFE7FF070000F0B55F4656464D464446F0B40D0399464E002B0B87B00700924680469B46760DCC0F002E69D06D4B9E4235D05B468022DD0012046C
:40424000430F13432B439B46C3009846674B00279C460023664401934A4615035000D20F53462D0B400D914600D176E05E4A90426CD080225B0F120413435C4AED009446FA
:404280001D4353460022DB00604449463618701C6140029017430F2F00D9AFE05448BF00C759BF465B461F4300D088E000239B469846023308270193CEE74946022A6AD089
:4042C000032A00D109E2012A00D0BBE111400022002300259046CCB200212D030A0D12052D0B1543434A1B0515401D436D00E4076D0825434046290007B03CBC9046994676
:40430000A246AB46F0BD034352D05B46002B00D18AE1584600F018FE03000B3B1C2B00DD7BE11D22D31A3A0001005D46DA4008398D4013008F402B439B46B8462E4B002719
:404340009C46002360444642019385E752462A432CD100250023022297E752462A4321D0002D00D154E1280000F0EEFD03000B3B1C2B00DD46E11D21CB1A51460200D9408B
:404380005346083A954093400D431B4A944660444042002279E7012400220C40124B0025904699E70025002301226EE703226CE700239B4698460133042701934CE7032372
:4043C0000C27019348E700238025984600242D03054B81E75D464346019A6FE75D4643462100019A6AE7C046FF07000001FCFFFF9C530000FFFF0F80F30300004246120CA0
:4044000091461A0C9446424617044A461B041B0C5A43604690464A4642431000039262461C003F0C7A437C4342440192220C9246019A5244904506D982468020400280465A
:40444000C24450460390100C049048462404240C1204121905922A0C2D042D0C68432C00824648467C4350438146200C8046574357444744BA4503D9802040028046C1447F
:40448000380C3F04B84648442404240C01900498A044404404905846000C814658460404200C8246070048465F434C464343604660436446834650464443380C8446E4182D
:4044C0006444A34203D980235B029C46E34448463F04230C3F0C2404E419574668436F4384464D46504655434243380C814662444A445B44944503D98020400284466544E8
:4045000003983F04834604983F0C8446E344C345804140428246100484460198674484466744A344BC46A345A4419946D44464428742BF41D4458041E144A04699459B4197
:404540007F424042C8440743120CBA18A045A4415F423B0064422343D71843467D19DB0D6D021D435B465A02059B1A43531E9A415B46DB0D1A4343465B021343EA0107D50C
:4045800001225C0813402343EA07029E13436D08574AB218002A4BDD580709D00F201840042805D0181D98429B415B42ED180300E80104D54F4A15408022D200B2184E48CE
:4045C000824200DDE7E60124DB08680718436D02530580462D0B5B0D0C407DE6802259461203114208D0154206D115432D0398462D0B4C46414B6FE65D4615432D032D0B7C
:404600003E4B69E603005546283B9D400023BCE6504600F099FC2030A8E60300283B9F400023BB46984689E600F08EFC203073E60124A61A382E07DD00220C400023002548
:40464000904649E6029EA3E71F2E20DC20222C001800921BF040944093400443581E83411C43F540630709D00F232340042B05D023001C1D9C4292415242AD182B021FD540
:40468000012400220C4001230025904624E61F202C004042821AD440202E1CD04022961BB5402B43581E83410720234318400025002809D00F2200251A401C00042AD8D109
:4046C000230068076D022D0B0124DB08034398460C40002300E60025E3E780220124120315432D0398462D0B0C40044BF4E5C046FF030000FFFFFFFEFE070000FF07000015
:40470000F0B557464E464546E0B40E001100F20F9246C500420F180337037400400A4E0F7F0A3043CF4E17435A00640D520DDB0FC900B24200D1E5E001267340A61AB44698
:40474000534500D1AFE0002E00DC0DE1002A3AD103000B4300D0E4E06B0709D00F232B40042B05D02B1DAB42AD416D427F191D003B0200D488E0BB4B01349C4200D110E168
:404780003A00B94B51461A4001235007ED08520264050543120B640D0B400021280012030D0D120B64052D0515436208AF4CDB072C401443640064081C4321001CBC9046EC
:4047C0009946A246F0BDA74B9C42C5D080231B0418436346382B00DDFDE01F2B00DD30E1624620239B1A02009A40664690460A009940F24046464B1E994132431143634671
:404800000200DA40691A8D429B410D00BA1A5B42D71A3B0235D57A02530A98464346002B00D1C4E0404600F08FFB0300083B1F2B00DDC5E020222900D21A4746D1409F40B2
:404840000A009D403A439C4200DDC0E01C1B631C1F2B00DDE4E0202114002800C91AD8408C408D400443DA40681E854117002543002471E7424663461A4300D14CE26746E5
:4048800045466B0700D069E7012351467807ED08FA080B40054373498C4238D012036405120B640D79E7002E00DC9AE0002A47D06C4A944200D14FE780221204104362460E
:4048C000382A00DC08E10143481E81410022C9B24919D219A942BF410D007F42BF183A0200D442E15F4A0134944200D14EE101205D4A69083A4028400843D50705435708DB
:404900009A4629E706000E4300D017E714E72900114300D1F9E1802109030A431203120B3BE701235B429846C4446346002B72D1691A8D429B413F1A5B42FF1A0D0068E79A
:4049400002000A4300D107E7012252429046C4446246002A00D0E6E06918A942B6413F187642F7190D00BAE7002E00D080E0621C5205520D012A00DCF9E06A1A91464D459D
:40498000B6413A1A7642921B9046120200D499E04D1BA9428941C71B49427A1A90469A463CE752460123002513400022F5E6280000F0CAFA20300300083B1F2B00DC39E730
:4049C0002A002838824000259C4200DC3EE7264FE41A1740C0E60143481E81410022C9B210E7002E00D0F1E0621C94465205520D012A00DCA0E01B4A944500D1C5E069185E
:404A0000A94292413F185242D2194908D5070D4357086446A0E6134B9C4200D0D9E69BE611001F3CE1400C00202B00D180E04021CB1A9A4015436A1E9541002725430024EC
:404A40001FE763460200203BDA406346202B71D0402366469B1B98400143481E814111430022CFE6FF070000FFFF7FFFFFFF0F80002C48D0CA4CA24200D1A2E07442A1466A
:404A80008024240427434C46382C00DDDBE01F2C00DD44E14E462024A41B3E00A640A246B0464C462E00E640B4464646644626435446A5406C1EA54134002C434D46EF4079
:404AC0000D1B28E04A4643464D461A4300D0A5E6002300240025DEE61F2A5ADC66462022921B060096409146B04662460E00D640424616434A4691404A1E9141020060463F
:404B00003143C240E4E63C002C435AD0F443A146002C52D14D1BA9428941C71B49427F1A14009A4675E69E4A944200D0C7E613E600227FE700208FE7002C00D0C8E03B0050
:404B40002B4300D10FE103000B4300D104E66918A9429B413F185B42DF193B0200D41AE1904B0D001F406446F6E59A4689E63A002A43002C5CD1002A75D102000A4300D10F
:404B8000CAE007000D009A46E6E564460022002581E662460600203AD6406246B046202A00D1B7E040226646921B904001434246481E8141114300228AE6794CA24200D0E8
:404BC00061E707000D0014009A46C5E5002C41D13C002C4378D0F443A146002C20D0704CA24271D04C46382C00DDB2E01F2C00DDBCE02026341BA2463C005646B4404E4669
:404C0000A0462C00F440A446444666463443A4465446A54064466E1EB54125434C46E7406D188D4289413F184942CF19140056E6002A2FD102000A4300D184E007000D00E7
:404C40009A46574C88E53D436F1EBD41ECB200270D1B60E7524CA24236D0744280263604A1463743BEE702000A4300D174E56A1A90464545B6413A1A7642921B94461202E6
:404C800000D4F7E54D1BA9428941C71B49427F1A9A4661E502000A433AD0ED087C072C438025FA082D032A4208D0C7082F4205D145072C003A009A46C9080C43670FD20090
:404CC000E5001743364C47E507000D00140043E53A002A4343D002000A4319D0ED087C072C438025FA082D032A4207D0C6082E4204D147073C003200C9080C43D700620F4D
:404D0000E50017439A46264C26E50022002544E5234C21E5002049E700230025BBE54C463E00203CE6404C46B446202C31D040244E46A61BB7403D436C1EA54164462C43D6
:404D400000270D1BE7E6802200231203144C0025A1E53D436F1EBD410027EDB260E707000D000F4CF8E407000D00F5E44E463C00203EF440A0464C46202C0ED040244E46E6
:404D8000A41BA7403D436F1EBD4144460027254346E70027CFE70D0073E50027F2E7C046FF070000FFFF7FFF70B50E4E0C031D0349005B00240B490D2D0B5B0DB14204D0F2
:404DC000084900208B4208D070BD04430120002CFAD1044900208B42F6D115432800451EA841F1E7FF0700000B0330B5134D1A0B4B005B0DC90F0024AB4211DD104CA34223
:404E000010DC8024640322430E4CE41A1F2C0CDD0D48C31ADA4013005C42002900D11C00200030BD094BCC18FAE7E040084CA44663449A4013000343EEE7C046FE0300003D
:404E40001D0400003304000013040000FFFFFF7FEDFBFFFF70B5002830D0C317C4185C40C50F200000F070F8174B184A1B1AD21A1F2A18DD164AD21A9440002224035B058A
:404E8000240B5B0D0021100024030A0D1205240B1443104A1B0514401C436400ED0764082C43210070BD210091400A000B21081AC4405B052403240B5B0DE3E70025002323
:404EC00000240022DEE7C0461E0400003304000013040000FFFF0F8070B5051E28D000F033F8154B154A1B1AD21A1F2A16DD2C00134A0025D21A94405A052403240B520DAB
:404F0000002124030B0D240B1B0523430D4C1205234013435B002800590870BD0B212C00081AC440954024035A05240B520DE7E700220024E4E7C0461E040000330400007D
:404F400013040000FFFF0F801C2101231B04984201D3000C10391B0A984201D3000A08391B09984201D30009043902A2105C40187047C046040302020101010100000000A0
:404F80000000000058220120014B40421A607047CC01002058220120014B40421A607047CC0100205822024B00201A607047C046CC01002058220120014B40421A6070473E
:404FC000CC01002058220120014B40421A607047CC010020000000000D0A2A2A2A2A2A2A2A2A2A2A2A2A2A2A2A2A2A2A2A2A2A2A2A2A2A2A2A2A2A2A2A2A2A2A2A2A2A2AEA
:405000002A2A2A2A2A2A2A2A2A2A2A2A2A2A2A2A2A2A2A2A2A2A2A2A2A2A2A2A2A2A2A2A2A2A2A2A2A2A2A2A2A2A2A2A0D0A000054686973206578616D706C652064656D27
:405040006F6E737472617465732055415254206F7065726174696F6E2077697468207072696E7466200D0A00496620796F7520736565207468697320746578742074686593
:40508000207465726D696E616C20636F6E6E656374696F6E20697320636F6E6669677572656420636F72726563746C792E0D0A005075736820627574746F6E20746F2073B4
:4050C0006565207072696E74662066756E6374696F6E207573656420746F207072696E74206F6E207465726D696E616C2E0D0A0054657374696E67207072696E74662066B7
:40510000756E6374696F6E2E206C6F6E673A20256C64202C20666C6F61743A202566200D0A0000004E756D626572206F662074696D657320627574746F6E2068617320624A
:4051400065656E2070726573736564203D2025640D0A000000300F40000400400F4000040201110102600F40030405060708090A0B0C0E0F101112131415161718191B1C7C
:405180001D1E1F2021222325262728292A2B2E2F3031323334354300E0000020494E4600696E66004E414E006E616E003000303132333435363738394142434445460030F2
:4051C00031323334353637383961626364656600496E66696E697479004E614E00000000000000000000000000000000000000000000000000000000000000000000000036
:40520000000000000000000000000000000000000000000000000000000000000000000000000000000000000000000000000000000000000000000000000000000000006E
:40524000504F534958002E00000000000000F03F000000000000244000000000000059400000000000408F40000000000088C34000000000006AF8400000000080842E4192
:4052800000000000D01263410000000084D797410000000065CDCD41000000205FA00242000000E876483742000000A2941A6D42000040E59C30A2420000901EC4BCD64259
:4052C00000003426F56B0C430080E03779C3414300A0D8855734764300C84E676DC1AB43003D9160E458E143408CB5781DAF154450EFE2D6E41A4B4492D54D06CFF0804407
:40530000F64AE1C7022DB544B49DD9794378EA4405000000190000007D000000000000000080E03779C34143176E05B5B5B89346F5F93FE9034F384D321D30F94877825A5A
:405340003CBF737FDD4F1575232D302B2000686C4C0065666745464700000000B43B0000823A0000883B0000783A0000883B0000923B0000883B0000783A0000823A0000BA
:40538000823A0000923B0000783A00006E3A00006E3A00006E3A0000E43D0000FC430000BC420000BC420000BA420000D4430000D4430000C6430000BA420000D443000018
:4053C000C6430000D4430000BA420000DC430000DC430000DC430000DC450000F8B5C046F8BC08BC9E4670477D01000039030000F8B5C046F8BC08BC9E4670475501000077
:4054000010540000C0000020C00000005000000000000000D0010020010000000000E02EC05D00001800000000366E010404040000000000E051000000520000205200003D
:405440000000000000000000000000000000000096510000000000000000000000000000000000000000000000000000000000000000000000000000000000000000000045
:4054800000000000000000000000000000000000E0000020465200004D5300004D5300004D5300004D5300004D5300004D5300004D5300004D5300004D530000FFFFFFFFB8
:4054C000FFFFFFFFFFFFFFFFFFFF000000000000000000000000000000000000000000000000000000000000000000000000000000000000000000000000000000000000B6
:40550000000000000000000000000000000000000000000000000000000000000000000000000000000000000000000000000000000000000000000000000000000000006B
:40554000000000000000000000000000000000000000000000000000000000000000000000000000000000000000000000000000000000000000000000000000000000002B
:4055800000000000000000000000000000000000000000000000000000000000000000000000000000000000000000000000000000000000000000000000000000000000EB
:4055C00000000000000000000000000000000000000000000000000000000000000000000000000000000000000000000000000000000000000000000000000000000000AB
:0200000490303A
:02000000C240FC
:0200000490402A
:200000000000000000000000000000000000000000000000000000000000000000000000E0
:0200000490501A
:0C000000000204C81193110104E3D3D3E3
:0200000490600A
:0100000001FE
:00000001FF